{
	"contracts/Strings.sol": {
		"Strings": {
			"abi": [
				{
					"inputs": [],
					"name": "myString",
					"outputs": [
						{
							"internalType": "string",
							"name": "",
							"type": "string"
						}
					],
					"stateMutability": "view",
					"type": "function"
				},
				{
					"inputs": [
						{
							"internalType": "string",
							"name": "_myString",
							"type": "string"
						}
					],
					"name": "setMyString",
					"outputs": [],
					"stateMutability": "nonpayable",
					"type": "function"
				}
			],
			"devdoc": {
				"kind": "dev",
				"methods": {},
				"version": 1
			},
			"evm": {
				"assembly": "    /* \"contracts/Strings.sol\":26:191  contract Strings {... */\n  mstore(0x40, 0x80)\n    /* \"contracts/Strings.sol\":51:89  string public myString = \"Hello World\" */\n  mload(0x40)\n  dup1\n  0x40\n  add\n  0x40\n  mstore\n  dup1\n  0x0b\n  dup2\n  mstore\n  0x20\n  add\n  0x48656c6c6f20576f726c64000000000000000000000000000000000000000000\n  dup2\n  mstore\n  pop\n  0x00\n  swap1\n  dup2\n  tag_1\n  swap2\n  swap1\n  tag_2\n  jump\t// in\ntag_1:\n  pop\n    /* \"contracts/Strings.sol\":26:191  contract Strings {... */\n  callvalue\n  dup1\n  iszero\n  tag_3\n  jumpi\n  revert(0x00, 0x00)\ntag_3:\n  pop\n  jump(tag_4)\n    /* \"#utility.yul\":7:106   */\ntag_5:\n    /* \"#utility.yul\":59:65   */\n  0x00\n    /* \"#utility.yul\":93:98   */\n  dup2\n    /* \"#utility.yul\":87:99   */\n  mload\n    /* \"#utility.yul\":77:99   */\n  swap1\n  pop\n    /* \"#utility.yul\":7:106   */\n  swap2\n  swap1\n  pop\n  jump\t// out\n    /* \"#utility.yul\":112:292   */\ntag_6:\n    /* \"#utility.yul\":160:237   */\n  0x4e487b7100000000000000000000000000000000000000000000000000000000\n    /* \"#utility.yul\":157:158   */\n  0x00\n    /* \"#utility.yul\":150:238   */\n  mstore\n    /* \"#utility.yul\":257:261   */\n  0x41\n    /* \"#utility.yul\":254:255   */\n  0x04\n    /* \"#utility.yul\":247:262   */\n  mstore\n    /* \"#utility.yul\":281:285   */\n  0x24\n    /* \"#utility.yul\":278:279   */\n  0x00\n    /* \"#utility.yul\":271:286   */\n  revert\n    /* \"#utility.yul\":298:478   */\ntag_7:\n    /* \"#utility.yul\":346:423   */\n  0x4e487b7100000000000000000000000000000000000000000000000000000000\n    /* \"#utility.yul\":343:344   */\n  0x00\n    /* \"#utility.yul\":336:424   */\n  mstore\n    /* \"#utility.yul\":443:447   */\n  0x22\n    /* \"#utility.yul\":440:441   */\n  0x04\n    /* \"#utility.yul\":433:448   */\n  mstore\n    /* \"#utility.yul\":467:471   */\n  0x24\n    /* \"#utility.yul\":464:465   */\n  0x00\n    /* \"#utility.yul\":457:472   */\n  revert\n    /* \"#utility.yul\":484:804   */\ntag_8:\n    /* \"#utility.yul\":528:534   */\n  0x00\n    /* \"#utility.yul\":565:566   */\n  0x02\n    /* \"#utility.yul\":559:563   */\n  dup3\n    /* \"#utility.yul\":555:567   */\n  div\n    /* \"#utility.yul\":545:567   */\n  swap1\n  pop\n    /* \"#utility.yul\":612:613   */\n  0x01\n    /* \"#utility.yul\":606:610   */\n  dup3\n    /* \"#utility.yul\":602:614   */\n  and\n    /* \"#utility.yul\":633:651   */\n  dup1\n    /* \"#utility.yul\":623:704   */\n  tag_30\n  jumpi\n    /* \"#utility.yul\":689:693   */\n  0x7f\n    /* \"#utility.yul\":681:687   */\n  dup3\n    /* \"#utility.yul\":677:694   */\n  and\n    /* \"#utility.yul\":667:694   */\n  swap2\n  pop\n    /* \"#utility.yul\":623:704   */\ntag_30:\n    /* \"#utility.yul\":751:753   */\n  0x20\n    /* \"#utility.yul\":743:749   */\n  dup3\n    /* \"#utility.yul\":740:754   */\n  lt\n    /* \"#utility.yul\":720:738   */\n  dup2\n    /* \"#utility.yul\":717:755   */\n  sub\n    /* \"#utility.yul\":714:798   */\n  tag_31\n  jumpi\n    /* \"#utility.yul\":770:788   */\n  tag_32\n  tag_7\n  jump\t// in\ntag_32:\n    /* \"#utility.yul\":714:798   */\ntag_31:\n    /* \"#utility.yul\":535:804   */\n  pop\n    /* \"#utility.yul\":484:804   */\n  swap2\n  swap1\n  pop\n  jump\t// out\n    /* \"#utility.yul\":810:951   */\ntag_9:\n    /* \"#utility.yul\":859:863   */\n  0x00\n    /* \"#utility.yul\":882:885   */\n  dup2\n    /* \"#utility.yul\":874:885   */\n  swap1\n  pop\n    /* \"#utility.yul\":905:908   */\n  dup2\n    /* \"#utility.yul\":902:903   */\n  0x00\n    /* \"#utility.yul\":895:909   */\n  mstore\n    /* \"#utility.yul\":939:943   */\n  0x20\n    /* \"#utility.yul\":936:937   */\n  0x00\n    /* \"#utility.yul\":926:944   */\n  keccak256\n    /* \"#utility.yul\":918:944   */\n  swap1\n  pop\n    /* \"#utility.yul\":810:951   */\n  swap2\n  swap1\n  pop\n  jump\t// out\n    /* \"#utility.yul\":957:1050   */\ntag_10:\n    /* \"#utility.yul\":994:1000   */\n  0x00\n    /* \"#utility.yul\":1041:1043   */\n  0x20\n    /* \"#utility.yul\":1036:1038   */\n  0x1f\n    /* \"#utility.yul\":1029:1034   */\n  dup4\n    /* \"#utility.yul\":1025:1039   */\n  add\n    /* \"#utility.yul\":1021:1044   */\n  div\n    /* \"#utility.yul\":1011:1044   */\n  swap1\n  pop\n    /* \"#utility.yul\":957:1050   */\n  swap2\n  swap1\n  pop\n  jump\t// out\n    /* \"#utility.yul\":1056:1163   */\ntag_11:\n    /* \"#utility.yul\":1100:1108   */\n  0x00\n    /* \"#utility.yul\":1150:1155   */\n  dup3\n    /* \"#utility.yul\":1144:1148   */\n  dup3\n    /* \"#utility.yul\":1140:1156   */\n  shl\n    /* \"#utility.yul\":1119:1156   */\n  swap1\n  pop\n    /* \"#utility.yul\":1056:1163   */\n  swap3\n  swap2\n  pop\n  pop\n  jump\t// out\n    /* \"#utility.yul\":1169:1562   */\ntag_12:\n    /* \"#utility.yul\":1238:1244   */\n  0x00\n    /* \"#utility.yul\":1288:1289   */\n  0x08\n    /* \"#utility.yul\":1276:1286   */\n  dup4\n    /* \"#utility.yul\":1272:1290   */\n  mul\n    /* \"#utility.yul\":1311:1408   */\n  tag_37\n    /* \"#utility.yul\":1341:1407   */\n  0xffffffffffffffffffffffffffffffffffffffffffffffffffffffffffffffff\n    /* \"#utility.yul\":1330:1339   */\n  dup3\n    /* \"#utility.yul\":1311:1408   */\n  tag_11\n  jump\t// in\ntag_37:\n    /* \"#utility.yul\":1429:1468   */\n  tag_38\n    /* \"#utility.yul\":1459:1467   */\n  dup7\n    /* \"#utility.yul\":1448:1457   */\n  dup4\n    /* \"#utility.yul\":1429:1468   */\n  tag_11\n  jump\t// in\ntag_38:\n    /* \"#utility.yul\":1417:1468   */\n  swap6\n  pop\n    /* \"#utility.yul\":1501:1505   */\n  dup1\n    /* \"#utility.yul\":1497:1506   */\n  not\n    /* \"#utility.yul\":1490:1495   */\n  dup5\n    /* \"#utility.yul\":1486:1507   */\n  and\n    /* \"#utility.yul\":1477:1507   */\n  swap4\n  pop\n    /* \"#utility.yul\":1550:1554   */\n  dup1\n    /* \"#utility.yul\":1540:1548   */\n  dup7\n    /* \"#utility.yul\":1536:1555   */\n  and\n    /* \"#utility.yul\":1529:1534   */\n  dup5\n    /* \"#utility.yul\":1526:1556   */\n  or\n    /* \"#utility.yul\":1516:1556   */\n  swap3\n  pop\n    /* \"#utility.yul\":1245:1562   */\n  pop\n  pop\n    /* \"#utility.yul\":1169:1562   */\n  swap4\n  swap3\n  pop\n  pop\n  pop\n  jump\t// out\n    /* \"#utility.yul\":1568:1645   */\ntag_13:\n    /* \"#utility.yul\":1605:1612   */\n  0x00\n    /* \"#utility.yul\":1634:1639   */\n  dup2\n    /* \"#utility.yul\":1623:1639   */\n  swap1\n  pop\n    /* \"#utility.yul\":1568:1645   */\n  swap2\n  swap1\n  pop\n  jump\t// out\n    /* \"#utility.yul\":1651:1711   */\ntag_14:\n    /* \"#utility.yul\":1679:1682   */\n  0x00\n    /* \"#utility.yul\":1700:1705   */\n  dup2\n    /* \"#utility.yul\":1693:1705   */\n  swap1\n  pop\n    /* \"#utility.yul\":1651:1711   */\n  swap2\n  swap1\n  pop\n  jump\t// out\n    /* \"#utility.yul\":1717:1859   */\ntag_15:\n    /* \"#utility.yul\":1767:1776   */\n  0x00\n    /* \"#utility.yul\":1800:1853   */\n  tag_42\n    /* \"#utility.yul\":1818:1852   */\n  tag_43\n    /* \"#utility.yul\":1827:1851   */\n  tag_44\n    /* \"#utility.yul\":1845:1850   */\n  dup5\n    /* \"#utility.yul\":1827:1851   */\n  tag_13\n  jump\t// in\ntag_44:\n    /* \"#utility.yul\":1818:1852   */\n  tag_14\n  jump\t// in\ntag_43:\n    /* \"#utility.yul\":1800:1853   */\n  tag_13\n  jump\t// in\ntag_42:\n    /* \"#utility.yul\":1787:1853   */\n  swap1\n  pop\n    /* \"#utility.yul\":1717:1859   */\n  swap2\n  swap1\n  pop\n  jump\t// out\n    /* \"#utility.yul\":1865:1940   */\ntag_16:\n    /* \"#utility.yul\":1908:1911   */\n  0x00\n    /* \"#utility.yul\":1929:1934   */\n  dup2\n    /* \"#utility.yul\":1922:1934   */\n  swap1\n  pop\n    /* \"#utility.yul\":1865:1940   */\n  swap2\n  swap1\n  pop\n  jump\t// out\n    /* \"#utility.yul\":1946:2215   */\ntag_17:\n    /* \"#utility.yul\":2056:2095   */\n  tag_47\n    /* \"#utility.yul\":2087:2094   */\n  dup4\n    /* \"#utility.yul\":2056:2095   */\n  tag_15\n  jump\t// in\ntag_47:\n    /* \"#utility.yul\":2117:2208   */\n  tag_48\n    /* \"#utility.yul\":2166:2207   */\n  tag_49\n    /* \"#utility.yul\":2190:2206   */\n  dup3\n    /* \"#utility.yul\":2166:2207   */\n  tag_16\n  jump\t// in\ntag_49:\n    /* \"#utility.yul\":2158:2164   */\n  dup5\n    /* \"#utility.yul\":2151:2155   */\n  dup5\n    /* \"#utility.yul\":2145:2156   */\n  sload\n    /* \"#utility.yul\":2117:2208   */\n  tag_12\n  jump\t// in\ntag_48:\n    /* \"#utility.yul\":2111:2115   */\n  dup3\n    /* \"#utility.yul\":2104:2209   */\n  sstore\n    /* \"#utility.yul\":2022:2215   */\n  pop\n    /* \"#utility.yul\":1946:2215   */\n  pop\n  pop\n  pop\n  jump\t// out\n    /* \"#utility.yul\":2221:2294   */\ntag_18:\n    /* \"#utility.yul\":2266:2269   */\n  0x00\n    /* \"#utility.yul\":2287:2288   */\n  0x00\n    /* \"#utility.yul\":2280:2288   */\n  swap1\n  pop\n    /* \"#utility.yul\":2221:2294   */\n  swap1\n  jump\t// out\n    /* \"#utility.yul\":2300:2489   */\ntag_19:\n    /* \"#utility.yul\":2377:2409   */\n  tag_52\n  tag_18\n  jump\t// in\ntag_52:\n    /* \"#utility.yul\":2418:2483   */\n  tag_53\n    /* \"#utility.yul\":2476:2482   */\n  dup2\n    /* \"#utility.yul\":2468:2474   */\n  dup5\n    /* \"#utility.yul\":2462:2466   */\n  dup5\n    /* \"#utility.yul\":2418:2483   */\n  tag_17\n  jump\t// in\ntag_53:\n    /* \"#utility.yul\":2353:2489   */\n  pop\n    /* \"#utility.yul\":2300:2489   */\n  pop\n  pop\n  jump\t// out\n    /* \"#utility.yul\":2495:2709   */\ntag_20:\n    /* \"#utility.yul\":2580:2581   */\n  0x00\n    /* \"#utility.yul\":2565:2703   */\ntag_55:\n    /* \"#utility.yul\":2590:2599   */\n  dup3\n    /* \"#utility.yul\":2587:2588   */\n  dup2\n    /* \"#utility.yul\":2584:2600   */\n  lt\n    /* \"#utility.yul\":2565:2703   */\n  iszero\n  tag_57\n  jumpi\n    /* \"#utility.yul\":2642:2693   */\n  tag_58\n    /* \"#utility.yul\":2691:2692   */\n  0x00\n    /* \"#utility.yul\":2687:2688   */\n  dup3\n    /* \"#utility.yul\":2676:2685   */\n  dup5\n    /* \"#utility.yul\":2672:2689   */\n  add\n    /* \"#utility.yul\":2642:2693   */\n  tag_19\n  jump\t// in\ntag_58:\n    /* \"#utility.yul\":2615:2616   */\n  0x01\n    /* \"#utility.yul\":2612:2613   */\n  dup2\n    /* \"#utility.yul\":2608:2617   */\n  add\n    /* \"#utility.yul\":2603:2617   */\n  swap1\n  pop\n    /* \"#utility.yul\":2565:2703   */\n  jump(tag_55)\ntag_57:\n    /* \"#utility.yul\":2569:2583   */\n  pop\n    /* \"#utility.yul\":2495:2709   */\n  pop\n  pop\n  jump\t// out\n    /* \"#utility.yul\":2715:3461   */\ntag_21:\n    /* \"#utility.yul\":2816:2818   */\n  0x1f\n    /* \"#utility.yul\":2811:2814   */\n  dup3\n    /* \"#utility.yul\":2808:2819   */\n  gt\n    /* \"#utility.yul\":2805:3454   */\n  iszero\n  tag_60\n  jumpi\n    /* \"#utility.yul\":2845:2855   */\n  dup3\n    /* \"#utility.yul\":2840:2843   */\n  dup3\n    /* \"#utility.yul\":2837:2856   */\n  gt\n    /* \"#utility.yul\":2834:3444   */\n  iszero\n  tag_61\n  jumpi\n    /* \"#utility.yul\":2891:2929   */\n  tag_62\n    /* \"#utility.yul\":2923:2928   */\n  dup2\n    /* \"#utility.yul\":2891:2929   */\n  tag_9\n  jump\t// in\ntag_62:\n    /* \"#utility.yul\":2966:2988   */\n  tag_63\n    /* \"#utility.yul\":2984:2987   */\n  dup4\n    /* \"#utility.yul\":2966:2988   */\n  tag_10\n  jump\t// in\ntag_63:\n    /* \"#utility.yul\":3025:3054   */\n  tag_64\n    /* \"#utility.yul\":3043:3053   */\n  dup6\n    /* \"#utility.yul\":3025:3054   */\n  tag_10\n  jump\t// in\ntag_64:\n    /* \"#utility.yul\":3215:3217   */\n  0x20\n    /* \"#utility.yul\":3203:3213   */\n  dup7\n    /* \"#utility.yul\":3200:3218   */\n  lt\n    /* \"#utility.yul\":3197:3276   */\n  iszero\n  tag_65\n  jumpi\n    /* \"#utility.yul\":3257:3258   */\n  0x00\n    /* \"#utility.yul\":3241:3258   */\n  swap1\n  pop\n    /* \"#utility.yul\":3197:3276   */\ntag_65:\n    /* \"#utility.yul\":3326:3338   */\n  dup1\n    /* \"#utility.yul\":3316:3324   */\n  dup4\n    /* \"#utility.yul\":3312:3339   */\n  add\n    /* \"#utility.yul\":3356:3430   */\n  tag_66\n    /* \"#utility.yul\":3416:3428   */\n  dup3\n    /* \"#utility.yul\":3402:3414   */\n  dup5\n    /* \"#utility.yul\":3398:3429   */\n  sub\n    /* \"#utility.yul\":3385:3396   */\n  dup3\n    /* \"#utility.yul\":3356:3430   */\n  tag_20\n  jump\t// in\ntag_66:\n    /* \"#utility.yul\":2857:3444   */\n  pop\n  pop\n  pop\n  pop\n    /* \"#utility.yul\":2834:3444   */\ntag_61:\n    /* \"#utility.yul\":2805:3454   */\ntag_60:\n    /* \"#utility.yul\":2715:3461   */\n  pop\n  pop\n  pop\n  jump\t// out\n    /* \"#utility.yul\":3467:3584   */\ntag_22:\n    /* \"#utility.yul\":3521:3529   */\n  0x00\n    /* \"#utility.yul\":3571:3576   */\n  dup3\n    /* \"#utility.yul\":3565:3569   */\n  dup3\n    /* \"#utility.yul\":3561:3577   */\n  shr\n    /* \"#utility.yul\":3540:3577   */\n  swap1\n  pop\n    /* \"#utility.yul\":3467:3584   */\n  swap3\n  swap2\n  pop\n  pop\n  jump\t// out\n    /* \"#utility.yul\":3590:3759   */\ntag_23:\n    /* \"#utility.yul\":3634:3640   */\n  0x00\n    /* \"#utility.yul\":3667:3718   */\n  tag_69\n    /* \"#utility.yul\":3715:3716   */\n  0x00\n    /* \"#utility.yul\":3711:3717   */\n  not\n    /* \"#utility.yul\":3703:3708   */\n  dup5\n    /* \"#utility.yul\":3700:3701   */\n  0x08\n    /* \"#utility.yul\":3696:3709   */\n  mul\n    /* \"#utility.yul\":3667:3718   */\n  tag_22\n  jump\t// in\ntag_69:\n    /* \"#utility.yul\":3663:3719   */\n  not\n    /* \"#utility.yul\":3748:3752   */\n  dup1\n    /* \"#utility.yul\":3742:3746   */\n  dup4\n    /* \"#utility.yul\":3738:3753   */\n  and\n    /* \"#utility.yul\":3728:3753   */\n  swap2\n  pop\n    /* \"#utility.yul\":3641:3759   */\n  pop\n    /* \"#utility.yul\":3590:3759   */\n  swap3\n  swap2\n  pop\n  pop\n  jump\t// out\n    /* \"#utility.yul\":3764:4059   */\ntag_24:\n    /* \"#utility.yul\":3840:3844   */\n  0x00\n    /* \"#utility.yul\":3986:4015   */\n  tag_71\n    /* \"#utility.yul\":4011:4014   */\n  dup4\n    /* \"#utility.yul\":4005:4009   */\n  dup4\n    /* \"#utility.yul\":3986:4015   */\n  tag_23\n  jump\t// in\ntag_71:\n    /* \"#utility.yul\":3978:4015   */\n  swap2\n  pop\n    /* \"#utility.yul\":4048:4051   */\n  dup3\n    /* \"#utility.yul\":4045:4046   */\n  0x02\n    /* \"#utility.yul\":4041:4052   */\n  mul\n    /* \"#utility.yul\":4035:4039   */\n  dup3\n    /* \"#utility.yul\":4032:4053   */\n  or\n    /* \"#utility.yul\":4024:4053   */\n  swap1\n  pop\n    /* \"#utility.yul\":3764:4059   */\n  swap3\n  swap2\n  pop\n  pop\n  jump\t// out\n    /* \"#utility.yul\":4064:5459   */\ntag_2:\n    /* \"#utility.yul\":4181:4218   */\n  tag_73\n    /* \"#utility.yul\":4214:4217   */\n  dup3\n    /* \"#utility.yul\":4181:4218   */\n  tag_5\n  jump\t// in\ntag_73:\n    /* \"#utility.yul\":4283:4301   */\n  0xffffffffffffffff\n    /* \"#utility.yul\":4275:4281   */\n  dup2\n    /* \"#utility.yul\":4272:4302   */\n  gt\n    /* \"#utility.yul\":4269:4325   */\n  iszero\n  tag_74\n  jumpi\n    /* \"#utility.yul\":4305:4323   */\n  tag_75\n  tag_6\n  jump\t// in\ntag_75:\n    /* \"#utility.yul\":4269:4325   */\ntag_74:\n    /* \"#utility.yul\":4349:4387   */\n  tag_76\n    /* \"#utility.yul\":4381:4385   */\n  dup3\n    /* \"#utility.yul\":4375:4386   */\n  sload\n    /* \"#utility.yul\":4349:4387   */\n  tag_8\n  jump\t// in\ntag_76:\n    /* \"#utility.yul\":4434:4501   */\n  tag_77\n    /* \"#utility.yul\":4494:4500   */\n  dup3\n    /* \"#utility.yul\":4486:4492   */\n  dup3\n    /* \"#utility.yul\":4480:4484   */\n  dup6\n    /* \"#utility.yul\":4434:4501   */\n  tag_21\n  jump\t// in\ntag_77:\n    /* \"#utility.yul\":4528:4529   */\n  0x00\n    /* \"#utility.yul\":4552:4556   */\n  0x20\n    /* \"#utility.yul\":4539:4556   */\n  swap1\n  pop\n    /* \"#utility.yul\":4584:4586   */\n  0x1f\n    /* \"#utility.yul\":4576:4582   */\n  dup4\n    /* \"#utility.yul\":4573:4587   */\n  gt\n    /* \"#utility.yul\":4601:4602   */\n  0x01\n    /* \"#utility.yul\":4596:5214   */\n  dup2\n  eq\n  tag_79\n  jumpi\n    /* \"#utility.yul\":5258:5259   */\n  0x00\n    /* \"#utility.yul\":5275:5281   */\n  dup5\n    /* \"#utility.yul\":5272:5349   */\n  iszero\n  tag_80\n  jumpi\n    /* \"#utility.yul\":5324:5333   */\n  dup3\n    /* \"#utility.yul\":5319:5322   */\n  dup8\n    /* \"#utility.yul\":5315:5334   */\n  add\n    /* \"#utility.yul\":5309:5335   */\n  mload\n    /* \"#utility.yul\":5300:5335   */\n  swap1\n  pop\n    /* \"#utility.yul\":5272:5349   */\ntag_80:\n    /* \"#utility.yul\":5375:5442   */\n  tag_81\n    /* \"#utility.yul\":5435:5441   */\n  dup6\n    /* \"#utility.yul\":5428:5433   */\n  dup3\n    /* \"#utility.yul\":5375:5442   */\n  tag_24\n  jump\t// in\ntag_81:\n    /* \"#utility.yul\":5369:5373   */\n  dup7\n    /* \"#utility.yul\":5362:5443   */\n  sstore\n    /* \"#utility.yul\":5231:5453   */\n  pop\n    /* \"#utility.yul\":4566:5453   */\n  jump(tag_78)\n    /* \"#utility.yul\":4596:5214   */\ntag_79:\n    /* \"#utility.yul\":4648:4652   */\n  0x1f\n    /* \"#utility.yul\":4644:4653   */\n  not\n    /* \"#utility.yul\":4636:4642   */\n  dup5\n    /* \"#utility.yul\":4632:4654   */\n  and\n    /* \"#utility.yul\":4682:4719   */\n  tag_82\n    /* \"#utility.yul\":4714:4718   */\n  dup7\n    /* \"#utility.yul\":4682:4719   */\n  tag_9\n  jump\t// in\ntag_82:\n    /* \"#utility.yul\":4741:4742   */\n  0x00\n    /* \"#utility.yul\":4755:4963   */\ntag_83:\n    /* \"#utility.yul\":4769:4776   */\n  dup3\n    /* \"#utility.yul\":4766:4767   */\n  dup2\n    /* \"#utility.yul\":4763:4777   */\n  lt\n    /* \"#utility.yul\":4755:4963   */\n  iszero\n  tag_85\n  jumpi\n    /* \"#utility.yul\":4848:4857   */\n  dup5\n    /* \"#utility.yul\":4843:4846   */\n  dup10\n    /* \"#utility.yul\":4839:4858   */\n  add\n    /* \"#utility.yul\":4833:4859   */\n  mload\n    /* \"#utility.yul\":4825:4831   */\n  dup3\n    /* \"#utility.yul\":4818:4860   */\n  sstore\n    /* \"#utility.yul\":4899:4900   */\n  0x01\n    /* \"#utility.yul\":4891:4897   */\n  dup3\n    /* \"#utility.yul\":4887:4901   */\n  add\n    /* \"#utility.yul\":4877:4901   */\n  swap2\n  pop\n    /* \"#utility.yul\":4946:4948   */\n  0x20\n    /* \"#utility.yul\":4935:4944   */\n  dup6\n    /* \"#utility.yul\":4931:4949   */\n  add\n    /* \"#utility.yul\":4918:4949   */\n  swap5\n  pop\n    /* \"#utility.yul\":4792:4796   */\n  0x20\n    /* \"#utility.yul\":4789:4790   */\n  dup2\n    /* \"#utility.yul\":4785:4797   */\n  add\n    /* \"#utility.yul\":4780:4797   */\n  swap1\n  pop\n    /* \"#utility.yul\":4755:4963   */\n  jump(tag_83)\ntag_85:\n    /* \"#utility.yul\":4991:4997   */\n  dup7\n    /* \"#utility.yul\":4982:4989   */\n  dup4\n    /* \"#utility.yul\":4979:4998   */\n  lt\n    /* \"#utility.yul\":4976:5155   */\n  iszero\n  tag_86\n  jumpi\n    /* \"#utility.yul\":5049:5058   */\n  dup5\n    /* \"#utility.yul\":5044:5047   */\n  dup10\n    /* \"#utility.yul\":5040:5059   */\n  add\n    /* \"#utility.yul\":5034:5060   */\n  mload\n    /* \"#utility.yul\":5092:5140   */\n  tag_87\n    /* \"#utility.yul\":5134:5138   */\n  0x1f\n    /* \"#utility.yul\":5126:5132   */\n  dup10\n    /* \"#utility.yul\":5122:5139   */\n  and\n    /* \"#utility.yul\":5111:5120   */\n  dup3\n    /* \"#utility.yul\":5092:5140   */\n  tag_23\n  jump\t// in\ntag_87:\n    /* \"#utility.yul\":5084:5090   */\n  dup4\n    /* \"#utility.yul\":5077:5141   */\n  sstore\n    /* \"#utility.yul\":4999:5155   */\n  pop\n    /* \"#utility.yul\":4976:5155   */\ntag_86:\n    /* \"#utility.yul\":5201:5202   */\n  0x01\n    /* \"#utility.yul\":5197:5198   */\n  0x02\n    /* \"#utility.yul\":5189:5195   */\n  dup9\n    /* \"#utility.yul\":5185:5199   */\n  mul\n    /* \"#utility.yul\":5181:5203   */\n  add\n    /* \"#utility.yul\":5175:5179   */\n  dup9\n    /* \"#utility.yul\":5168:5204   */\n  sstore\n    /* \"#utility.yul\":4603:5214   */\n  pop\n  pop\n  pop\n    /* \"#utility.yul\":4566:5453   */\ntag_78:\n  pop\n    /* \"#utility.yul\":4156:5459   */\n  pop\n  pop\n  pop\n    /* \"#utility.yul\":4064:5459   */\n  pop\n  pop\n  jump\t// out\n    /* \"contracts/Strings.sol\":26:191  contract Strings {... */\ntag_4:\n  dataSize(sub_0)\n  dup1\n  dataOffset(sub_0)\n  0x00\n  codecopy\n  0x00\n  return\nstop\n\nsub_0: assembly {\n        /* \"contracts/Strings.sol\":26:191  contract Strings {... */\n      mstore(0x40, 0x80)\n      callvalue\n      dup1\n      iszero\n      tag_1\n      jumpi\n      revert(0x00, 0x00)\n    tag_1:\n      pop\n      jumpi(tag_2, lt(calldatasize, 0x04))\n      shr(0xe0, calldataload(0x00))\n      dup1\n      0x492bfa18\n      eq\n      tag_3\n      jumpi\n      dup1\n      0x82180568\n      eq\n      tag_4\n      jumpi\n    tag_2:\n      revert(0x00, 0x00)\n        /* \"contracts/Strings.sol\":51:89  string public myString = \"Hello World\" */\n    tag_3:\n      tag_5\n      tag_6\n      jump\t// in\n    tag_5:\n      mload(0x40)\n      tag_7\n      swap2\n      swap1\n      tag_8\n      jump\t// in\n    tag_7:\n      mload(0x40)\n      dup1\n      swap2\n      sub\n      swap1\n      return\n        /* \"contracts/Strings.sol\":97:187  function setMyString(string memory _myString) public {... */\n    tag_4:\n      tag_9\n      0x04\n      dup1\n      calldatasize\n      sub\n      dup2\n      add\n      swap1\n      tag_10\n      swap2\n      swap1\n      tag_11\n      jump\t// in\n    tag_10:\n      tag_12\n      jump\t// in\n    tag_9:\n      stop\n        /* \"contracts/Strings.sol\":51:89  string public myString = \"Hello World\" */\n    tag_6:\n      0x00\n      dup1\n      sload\n      tag_13\n      swap1\n      tag_14\n      jump\t// in\n    tag_13:\n      dup1\n      0x1f\n      add\n      0x20\n      dup1\n      swap2\n      div\n      mul\n      0x20\n      add\n      mload(0x40)\n      swap1\n      dup2\n      add\n      0x40\n      mstore\n      dup1\n      swap3\n      swap2\n      swap1\n      dup2\n      dup2\n      mstore\n      0x20\n      add\n      dup3\n      dup1\n      sload\n      tag_15\n      swap1\n      tag_14\n      jump\t// in\n    tag_15:\n      dup1\n      iszero\n      tag_16\n      jumpi\n      dup1\n      0x1f\n      lt\n      tag_17\n      jumpi\n      0x0100\n      dup1\n      dup4\n      sload\n      div\n      mul\n      dup4\n      mstore\n      swap2\n      0x20\n      add\n      swap2\n      jump(tag_16)\n    tag_17:\n      dup3\n      add\n      swap2\n      swap1\n      0x00\n      mstore\n      keccak256(0x00, 0x20)\n      swap1\n    tag_18:\n      dup2\n      sload\n      dup2\n      mstore\n      swap1\n      0x01\n      add\n      swap1\n      0x20\n      add\n      dup1\n      dup4\n      gt\n      tag_18\n      jumpi\n      dup3\n      swap1\n      sub\n      0x1f\n      and\n      dup3\n      add\n      swap2\n    tag_16:\n      pop\n      pop\n      pop\n      pop\n      pop\n      dup2\n      jump\t// out\n        /* \"contracts/Strings.sol\":97:187  function setMyString(string memory _myString) public {... */\n    tag_12:\n        /* \"contracts/Strings.sol\":171:180  _myString */\n      dup1\n        /* \"contracts/Strings.sol\":160:168  myString */\n      0x00\n        /* \"contracts/Strings.sol\":160:180  myString = _myString */\n      swap1\n      dup2\n      tag_20\n      swap2\n      swap1\n      tag_21\n      jump\t// in\n    tag_20:\n      pop\n        /* \"contracts/Strings.sol\":97:187  function setMyString(string memory _myString) public {... */\n      pop\n      jump\t// out\n        /* \"#utility.yul\":7:106   */\n    tag_22:\n        /* \"#utility.yul\":59:65   */\n      0x00\n        /* \"#utility.yul\":93:98   */\n      dup2\n        /* \"#utility.yul\":87:99   */\n      mload\n        /* \"#utility.yul\":77:99   */\n      swap1\n      pop\n        /* \"#utility.yul\":7:106   */\n      swap2\n      swap1\n      pop\n      jump\t// out\n        /* \"#utility.yul\":112:281   */\n    tag_23:\n        /* \"#utility.yul\":196:207   */\n      0x00\n        /* \"#utility.yul\":230:236   */\n      dup3\n        /* \"#utility.yul\":225:228   */\n      dup3\n        /* \"#utility.yul\":218:237   */\n      mstore\n        /* \"#utility.yul\":270:274   */\n      0x20\n        /* \"#utility.yul\":265:268   */\n      dup3\n        /* \"#utility.yul\":261:275   */\n      add\n        /* \"#utility.yul\":246:275   */\n      swap1\n      pop\n        /* \"#utility.yul\":112:281   */\n      swap3\n      swap2\n      pop\n      pop\n      jump\t// out\n        /* \"#utility.yul\":287:426   */\n    tag_24:\n        /* \"#utility.yul\":376:382   */\n      dup3\n        /* \"#utility.yul\":371:374   */\n      dup2\n        /* \"#utility.yul\":366:369   */\n      dup4\n        /* \"#utility.yul\":360:383   */\n      mcopy\n        /* \"#utility.yul\":417:418   */\n      0x00\n        /* \"#utility.yul\":408:414   */\n      dup4\n        /* \"#utility.yul\":403:406   */\n      dup4\n        /* \"#utility.yul\":399:415   */\n      add\n        /* \"#utility.yul\":392:419   */\n      mstore\n        /* \"#utility.yul\":287:426   */\n      pop\n      pop\n      pop\n      jump\t// out\n        /* \"#utility.yul\":432:534   */\n    tag_25:\n        /* \"#utility.yul\":473:479   */\n      0x00\n        /* \"#utility.yul\":524:526   */\n      0x1f\n        /* \"#utility.yul\":520:527   */\n      not\n        /* \"#utility.yul\":515:517   */\n      0x1f\n        /* \"#utility.yul\":508:513   */\n      dup4\n        /* \"#utility.yul\":504:518   */\n      add\n        /* \"#utility.yul\":500:528   */\n      and\n        /* \"#utility.yul\":490:528   */\n      swap1\n      pop\n        /* \"#utility.yul\":432:534   */\n      swap2\n      swap1\n      pop\n      jump\t// out\n        /* \"#utility.yul\":540:917   */\n    tag_26:\n        /* \"#utility.yul\":628:631   */\n      0x00\n        /* \"#utility.yul\":656:695   */\n      tag_62\n        /* \"#utility.yul\":689:694   */\n      dup3\n        /* \"#utility.yul\":656:695   */\n      tag_22\n      jump\t// in\n    tag_62:\n        /* \"#utility.yul\":711:782   */\n      tag_63\n        /* \"#utility.yul\":775:781   */\n      dup2\n        /* \"#utility.yul\":770:773   */\n      dup6\n        /* \"#utility.yul\":711:782   */\n      tag_23\n      jump\t// in\n    tag_63:\n        /* \"#utility.yul\":704:782   */\n      swap4\n      pop\n        /* \"#utility.yul\":791:856   */\n      tag_64\n        /* \"#utility.yul\":849:855   */\n      dup2\n        /* \"#utility.yul\":844:847   */\n      dup6\n        /* \"#utility.yul\":837:841   */\n      0x20\n        /* \"#utility.yul\":830:835   */\n      dup7\n        /* \"#utility.yul\":826:842   */\n      add\n        /* \"#utility.yul\":791:856   */\n      tag_24\n      jump\t// in\n    tag_64:\n        /* \"#utility.yul\":881:910   */\n      tag_65\n        /* \"#utility.yul\":903:909   */\n      dup2\n        /* \"#utility.yul\":881:910   */\n      tag_25\n      jump\t// in\n    tag_65:\n        /* \"#utility.yul\":876:879   */\n      dup5\n        /* \"#utility.yul\":872:911   */\n      add\n        /* \"#utility.yul\":865:911   */\n      swap2\n      pop\n        /* \"#utility.yul\":632:917   */\n      pop\n        /* \"#utility.yul\":540:917   */\n      swap3\n      swap2\n      pop\n      pop\n      jump\t// out\n        /* \"#utility.yul\":923:1236   */\n    tag_8:\n        /* \"#utility.yul\":1036:1040   */\n      0x00\n        /* \"#utility.yul\":1074:1076   */\n      0x20\n        /* \"#utility.yul\":1063:1072   */\n      dup3\n        /* \"#utility.yul\":1059:1077   */\n      add\n        /* \"#utility.yul\":1051:1077   */\n      swap1\n      pop\n        /* \"#utility.yul\":1123:1132   */\n      dup2\n        /* \"#utility.yul\":1117:1121   */\n      dup2\n        /* \"#utility.yul\":1113:1133   */\n      sub\n        /* \"#utility.yul\":1109:1110   */\n      0x00\n        /* \"#utility.yul\":1098:1107   */\n      dup4\n        /* \"#utility.yul\":1094:1111   */\n      add\n        /* \"#utility.yul\":1087:1134   */\n      mstore\n        /* \"#utility.yul\":1151:1229   */\n      tag_67\n        /* \"#utility.yul\":1224:1228   */\n      dup2\n        /* \"#utility.yul\":1215:1221   */\n      dup5\n        /* \"#utility.yul\":1151:1229   */\n      tag_26\n      jump\t// in\n    tag_67:\n        /* \"#utility.yul\":1143:1229   */\n      swap1\n      pop\n        /* \"#utility.yul\":923:1236   */\n      swap3\n      swap2\n      pop\n      pop\n      jump\t// out\n        /* \"#utility.yul\":1242:1317   */\n    tag_27:\n        /* \"#utility.yul\":1275:1281   */\n      0x00\n        /* \"#utility.yul\":1308:1310   */\n      0x40\n        /* \"#utility.yul\":1302:1311   */\n      mload\n        /* \"#utility.yul\":1292:1311   */\n      swap1\n      pop\n        /* \"#utility.yul\":1242:1317   */\n      swap1\n      jump\t// out\n        /* \"#utility.yul\":1323:1440   */\n    tag_28:\n        /* \"#utility.yul\":1432:1433   */\n      0x00\n        /* \"#utility.yul\":1429:1430   */\n      0x00\n        /* \"#utility.yul\":1422:1434   */\n      revert\n        /* \"#utility.yul\":1446:1563   */\n    tag_29:\n        /* \"#utility.yul\":1555:1556   */\n      0x00\n        /* \"#utility.yul\":1552:1553   */\n      0x00\n        /* \"#utility.yul\":1545:1557   */\n      revert\n        /* \"#utility.yul\":1569:1686   */\n    tag_30:\n        /* \"#utility.yul\":1678:1679   */\n      0x00\n        /* \"#utility.yul\":1675:1676   */\n      0x00\n        /* \"#utility.yul\":1668:1680   */\n      revert\n        /* \"#utility.yul\":1692:1809   */\n    tag_31:\n        /* \"#utility.yul\":1801:1802   */\n      0x00\n        /* \"#utility.yul\":1798:1799   */\n      0x00\n        /* \"#utility.yul\":1791:1803   */\n      revert\n        /* \"#utility.yul\":1815:1995   */\n    tag_32:\n        /* \"#utility.yul\":1863:1940   */\n      0x4e487b7100000000000000000000000000000000000000000000000000000000\n        /* \"#utility.yul\":1860:1861   */\n      0x00\n        /* \"#utility.yul\":1853:1941   */\n      mstore\n        /* \"#utility.yul\":1960:1964   */\n      0x41\n        /* \"#utility.yul\":1957:1958   */\n      0x04\n        /* \"#utility.yul\":1950:1965   */\n      mstore\n        /* \"#utility.yul\":1984:1988   */\n      0x24\n        /* \"#utility.yul\":1981:1982   */\n      0x00\n        /* \"#utility.yul\":1974:1989   */\n      revert\n        /* \"#utility.yul\":2001:2282   */\n    tag_33:\n        /* \"#utility.yul\":2084:2111   */\n      tag_75\n        /* \"#utility.yul\":2106:2110   */\n      dup3\n        /* \"#utility.yul\":2084:2111   */\n      tag_25\n      jump\t// in\n    tag_75:\n        /* \"#utility.yul\":2076:2082   */\n      dup2\n        /* \"#utility.yul\":2072:2112   */\n      add\n        /* \"#utility.yul\":2214:2220   */\n      dup2\n        /* \"#utility.yul\":2202:2212   */\n      dup2\n        /* \"#utility.yul\":2199:2221   */\n      lt\n        /* \"#utility.yul\":2178:2196   */\n      0xffffffffffffffff\n        /* \"#utility.yul\":2166:2176   */\n      dup3\n        /* \"#utility.yul\":2163:2197   */\n      gt\n        /* \"#utility.yul\":2160:2222   */\n      or\n        /* \"#utility.yul\":2157:2245   */\n      iszero\n      tag_76\n      jumpi\n        /* \"#utility.yul\":2225:2243   */\n      tag_77\n      tag_32\n      jump\t// in\n    tag_77:\n        /* \"#utility.yul\":2157:2245   */\n    tag_76:\n        /* \"#utility.yul\":2265:2275   */\n      dup1\n        /* \"#utility.yul\":2261:2263   */\n      0x40\n        /* \"#utility.yul\":2254:2276   */\n      mstore\n        /* \"#utility.yul\":2044:2282   */\n      pop\n        /* \"#utility.yul\":2001:2282   */\n      pop\n      pop\n      jump\t// out\n        /* \"#utility.yul\":2288:2417   */\n    tag_34:\n        /* \"#utility.yul\":2322:2328   */\n      0x00\n        /* \"#utility.yul\":2349:2369   */\n      tag_79\n      tag_27\n      jump\t// in\n    tag_79:\n        /* \"#utility.yul\":2339:2369   */\n      swap1\n      pop\n        /* \"#utility.yul\":2378:2411   */\n      tag_80\n        /* \"#utility.yul\":2406:2410   */\n      dup3\n        /* \"#utility.yul\":2398:2404   */\n      dup3\n        /* \"#utility.yul\":2378:2411   */\n      tag_33\n      jump\t// in\n    tag_80:\n        /* \"#utility.yul\":2288:2417   */\n      swap2\n      swap1\n      pop\n      jump\t// out\n        /* \"#utility.yul\":2423:2731   */\n    tag_35:\n        /* \"#utility.yul\":2485:2489   */\n      0x00\n        /* \"#utility.yul\":2575:2593   */\n      0xffffffffffffffff\n        /* \"#utility.yul\":2567:2573   */\n      dup3\n        /* \"#utility.yul\":2564:2594   */\n      gt\n        /* \"#utility.yul\":2561:2617   */\n      iszero\n      tag_82\n      jumpi\n        /* \"#utility.yul\":2597:2615   */\n      tag_83\n      tag_32\n      jump\t// in\n    tag_83:\n        /* \"#utility.yul\":2561:2617   */\n    tag_82:\n        /* \"#utility.yul\":2635:2664   */\n      tag_84\n        /* \"#utility.yul\":2657:2663   */\n      dup3\n        /* \"#utility.yul\":2635:2664   */\n      tag_25\n      jump\t// in\n    tag_84:\n        /* \"#utility.yul\":2627:2664   */\n      swap1\n      pop\n        /* \"#utility.yul\":2719:2723   */\n      0x20\n        /* \"#utility.yul\":2713:2717   */\n      dup2\n        /* \"#utility.yul\":2709:2724   */\n      add\n        /* \"#utility.yul\":2701:2724   */\n      swap1\n      pop\n        /* \"#utility.yul\":2423:2731   */\n      swap2\n      swap1\n      pop\n      jump\t// out\n        /* \"#utility.yul\":2737:2885   */\n    tag_36:\n        /* \"#utility.yul\":2835:2841   */\n      dup3\n        /* \"#utility.yul\":2830:2833   */\n      dup2\n        /* \"#utility.yul\":2825:2828   */\n      dup4\n        /* \"#utility.yul\":2812:2842   */\n      calldatacopy\n        /* \"#utility.yul\":2876:2877   */\n      0x00\n        /* \"#utility.yul\":2867:2873   */\n      dup4\n        /* \"#utility.yul\":2862:2865   */\n      dup4\n        /* \"#utility.yul\":2858:2874   */\n      add\n        /* \"#utility.yul\":2851:2878   */\n      mstore\n        /* \"#utility.yul\":2737:2885   */\n      pop\n      pop\n      pop\n      jump\t// out\n        /* \"#utility.yul\":2891:3316   */\n    tag_37:\n        /* \"#utility.yul\":2969:2974   */\n      0x00\n        /* \"#utility.yul\":2994:3060   */\n      tag_87\n        /* \"#utility.yul\":3010:3059   */\n      tag_88\n        /* \"#utility.yul\":3052:3058   */\n      dup5\n        /* \"#utility.yul\":3010:3059   */\n      tag_35\n      jump\t// in\n    tag_88:\n        /* \"#utility.yul\":2994:3060   */\n      tag_34\n      jump\t// in\n    tag_87:\n        /* \"#utility.yul\":2985:3060   */\n      swap1\n      pop\n        /* \"#utility.yul\":3083:3089   */\n      dup3\n        /* \"#utility.yul\":3076:3081   */\n      dup2\n        /* \"#utility.yul\":3069:3090   */\n      mstore\n        /* \"#utility.yul\":3121:3125   */\n      0x20\n        /* \"#utility.yul\":3114:3119   */\n      dup2\n        /* \"#utility.yul\":3110:3126   */\n      add\n        /* \"#utility.yul\":3159:3162   */\n      dup5\n        /* \"#utility.yul\":3150:3156   */\n      dup5\n        /* \"#utility.yul\":3145:3148   */\n      dup5\n        /* \"#utility.yul\":3141:3157   */\n      add\n        /* \"#utility.yul\":3138:3163   */\n      gt\n        /* \"#utility.yul\":3135:3247   */\n      iszero\n      tag_89\n      jumpi\n        /* \"#utility.yul\":3166:3245   */\n      tag_90\n      tag_31\n      jump\t// in\n    tag_90:\n        /* \"#utility.yul\":3135:3247   */\n    tag_89:\n        /* \"#utility.yul\":3256:3310   */\n      tag_91\n        /* \"#utility.yul\":3303:3309   */\n      dup5\n        /* \"#utility.yul\":3298:3301   */\n      dup3\n        /* \"#utility.yul\":3293:3296   */\n      dup6\n        /* \"#utility.yul\":3256:3310   */\n      tag_36\n      jump\t// in\n    tag_91:\n        /* \"#utility.yul\":2975:3316   */\n      pop\n        /* \"#utility.yul\":2891:3316   */\n      swap4\n      swap3\n      pop\n      pop\n      pop\n      jump\t// out\n        /* \"#utility.yul\":3336:3676   */\n    tag_38:\n        /* \"#utility.yul\":3392:3397   */\n      0x00\n        /* \"#utility.yul\":3441:3444   */\n      dup3\n        /* \"#utility.yul\":3434:3438   */\n      0x1f\n        /* \"#utility.yul\":3426:3432   */\n      dup4\n        /* \"#utility.yul\":3422:3439   */\n      add\n        /* \"#utility.yul\":3418:3445   */\n      slt\n        /* \"#utility.yul\":3408:3530   */\n      tag_93\n      jumpi\n        /* \"#utility.yul\":3449:3528   */\n      tag_94\n      tag_30\n      jump\t// in\n    tag_94:\n        /* \"#utility.yul\":3408:3530   */\n    tag_93:\n        /* \"#utility.yul\":3566:3572   */\n      dup2\n        /* \"#utility.yul\":3553:3573   */\n      calldataload\n        /* \"#utility.yul\":3591:3670   */\n      tag_95\n        /* \"#utility.yul\":3666:3669   */\n      dup5\n        /* \"#utility.yul\":3658:3664   */\n      dup3\n        /* \"#utility.yul\":3651:3655   */\n      0x20\n        /* \"#utility.yul\":3643:3649   */\n      dup7\n        /* \"#utility.yul\":3639:3656   */\n      add\n        /* \"#utility.yul\":3591:3670   */\n      tag_37\n      jump\t// in\n    tag_95:\n        /* \"#utility.yul\":3582:3670   */\n      swap2\n      pop\n        /* \"#utility.yul\":3398:3676   */\n      pop\n        /* \"#utility.yul\":3336:3676   */\n      swap3\n      swap2\n      pop\n      pop\n      jump\t// out\n        /* \"#utility.yul\":3682:4191   */\n    tag_11:\n        /* \"#utility.yul\":3751:3757   */\n      0x00\n        /* \"#utility.yul\":3800:3802   */\n      0x20\n        /* \"#utility.yul\":3788:3797   */\n      dup3\n        /* \"#utility.yul\":3779:3786   */\n      dup5\n        /* \"#utility.yul\":3775:3798   */\n      sub\n        /* \"#utility.yul\":3771:3803   */\n      slt\n        /* \"#utility.yul\":3768:3887   */\n      iszero\n      tag_97\n      jumpi\n        /* \"#utility.yul\":3806:3885   */\n      tag_98\n      tag_28\n      jump\t// in\n    tag_98:\n        /* \"#utility.yul\":3768:3887   */\n    tag_97:\n        /* \"#utility.yul\":3954:3955   */\n      0x00\n        /* \"#utility.yul\":3943:3952   */\n      dup3\n        /* \"#utility.yul\":3939:3956   */\n      add\n        /* \"#utility.yul\":3926:3957   */\n      calldataload\n        /* \"#utility.yul\":3984:4002   */\n      0xffffffffffffffff\n        /* \"#utility.yul\":3976:3982   */\n      dup2\n        /* \"#utility.yul\":3973:4003   */\n      gt\n        /* \"#utility.yul\":3970:4087   */\n      iszero\n      tag_99\n      jumpi\n        /* \"#utility.yul\":4006:4085   */\n      tag_100\n      tag_29\n      jump\t// in\n    tag_100:\n        /* \"#utility.yul\":3970:4087   */\n    tag_99:\n        /* \"#utility.yul\":4111:4174   */\n      tag_101\n        /* \"#utility.yul\":4166:4173   */\n      dup5\n        /* \"#utility.yul\":4157:4163   */\n      dup3\n        /* \"#utility.yul\":4146:4155   */\n      dup6\n        /* \"#utility.yul\":4142:4164   */\n      add\n        /* \"#utility.yul\":4111:4174   */\n      tag_38\n      jump\t// in\n    tag_101:\n        /* \"#utility.yul\":4101:4174   */\n      swap2\n      pop\n        /* \"#utility.yul\":3897:4184   */\n      pop\n        /* \"#utility.yul\":3682:4191   */\n      swap3\n      swap2\n      pop\n      pop\n      jump\t// out\n        /* \"#utility.yul\":4197:4377   */\n    tag_39:\n        /* \"#utility.yul\":4245:4322   */\n      0x4e487b7100000000000000000000000000000000000000000000000000000000\n        /* \"#utility.yul\":4242:4243   */\n      0x00\n        /* \"#utility.yul\":4235:4323   */\n      mstore\n        /* \"#utility.yul\":4342:4346   */\n      0x22\n        /* \"#utility.yul\":4339:4340   */\n      0x04\n        /* \"#utility.yul\":4332:4347   */\n      mstore\n        /* \"#utility.yul\":4366:4370   */\n      0x24\n        /* \"#utility.yul\":4363:4364   */\n      0x00\n        /* \"#utility.yul\":4356:4371   */\n      revert\n        /* \"#utility.yul\":4383:4703   */\n    tag_14:\n        /* \"#utility.yul\":4427:4433   */\n      0x00\n        /* \"#utility.yul\":4464:4465   */\n      0x02\n        /* \"#utility.yul\":4458:4462   */\n      dup3\n        /* \"#utility.yul\":4454:4466   */\n      div\n        /* \"#utility.yul\":4444:4466   */\n      swap1\n      pop\n        /* \"#utility.yul\":4511:4512   */\n      0x01\n        /* \"#utility.yul\":4505:4509   */\n      dup3\n        /* \"#utility.yul\":4501:4513   */\n      and\n        /* \"#utility.yul\":4532:4550   */\n      dup1\n        /* \"#utility.yul\":4522:4603   */\n      tag_104\n      jumpi\n        /* \"#utility.yul\":4588:4592   */\n      0x7f\n        /* \"#utility.yul\":4580:4586   */\n      dup3\n        /* \"#utility.yul\":4576:4593   */\n      and\n        /* \"#utility.yul\":4566:4593   */\n      swap2\n      pop\n        /* \"#utility.yul\":4522:4603   */\n    tag_104:\n        /* \"#utility.yul\":4650:4652   */\n      0x20\n        /* \"#utility.yul\":4642:4648   */\n      dup3\n        /* \"#utility.yul\":4639:4653   */\n      lt\n        /* \"#utility.yul\":4619:4637   */\n      dup2\n        /* \"#utility.yul\":4616:4654   */\n      sub\n        /* \"#utility.yul\":4613:4697   */\n      tag_105\n      jumpi\n        /* \"#utility.yul\":4669:4687   */\n      tag_106\n      tag_39\n      jump\t// in\n    tag_106:\n        /* \"#utility.yul\":4613:4697   */\n    tag_105:\n        /* \"#utility.yul\":4434:4703   */\n      pop\n        /* \"#utility.yul\":4383:4703   */\n      swap2\n      swap1\n      pop\n      jump\t// out\n        /* \"#utility.yul\":4709:4850   */\n    tag_40:\n        /* \"#utility.yul\":4758:4762   */\n      0x00\n        /* \"#utility.yul\":4781:4784   */\n      dup2\n        /* \"#utility.yul\":4773:4784   */\n      swap1\n      pop\n        /* \"#utility.yul\":4804:4807   */\n      dup2\n        /* \"#utility.yul\":4801:4802   */\n      0x00\n        /* \"#utility.yul\":4794:4808   */\n      mstore\n        /* \"#utility.yul\":4838:4842   */\n      0x20\n        /* \"#utility.yul\":4835:4836   */\n      0x00\n        /* \"#utility.yul\":4825:4843   */\n      keccak256\n        /* \"#utility.yul\":4817:4843   */\n      swap1\n      pop\n        /* \"#utility.yul\":4709:4850   */\n      swap2\n      swap1\n      pop\n      jump\t// out\n        /* \"#utility.yul\":4856:4949   */\n    tag_41:\n        /* \"#utility.yul\":4893:4899   */\n      0x00\n        /* \"#utility.yul\":4940:4942   */\n      0x20\n        /* \"#utility.yul\":4935:4937   */\n      0x1f\n        /* \"#utility.yul\":4928:4933   */\n      dup4\n        /* \"#utility.yul\":4924:4938   */\n      add\n        /* \"#utility.yul\":4920:4943   */\n      div\n        /* \"#utility.yul\":4910:4943   */\n      swap1\n      pop\n        /* \"#utility.yul\":4856:4949   */\n      swap2\n      swap1\n      pop\n      jump\t// out\n        /* \"#utility.yul\":4955:5062   */\n    tag_42:\n        /* \"#utility.yul\":4999:5007   */\n      0x00\n        /* \"#utility.yul\":5049:5054   */\n      dup3\n        /* \"#utility.yul\":5043:5047   */\n      dup3\n        /* \"#utility.yul\":5039:5055   */\n      shl\n        /* \"#utility.yul\":5018:5055   */\n      swap1\n      pop\n        /* \"#utility.yul\":4955:5062   */\n      swap3\n      swap2\n      pop\n      pop\n      jump\t// out\n        /* \"#utility.yul\":5068:5461   */\n    tag_43:\n        /* \"#utility.yul\":5137:5143   */\n      0x00\n        /* \"#utility.yul\":5187:5188   */\n      0x08\n        /* \"#utility.yul\":5175:5185   */\n      dup4\n        /* \"#utility.yul\":5171:5189   */\n      mul\n        /* \"#utility.yul\":5210:5307   */\n      tag_111\n        /* \"#utility.yul\":5240:5306   */\n      0xffffffffffffffffffffffffffffffffffffffffffffffffffffffffffffffff\n        /* \"#utility.yul\":5229:5238   */\n      dup3\n        /* \"#utility.yul\":5210:5307   */\n      tag_42\n      jump\t// in\n    tag_111:\n        /* \"#utility.yul\":5328:5367   */\n      tag_112\n        /* \"#utility.yul\":5358:5366   */\n      dup7\n        /* \"#utility.yul\":5347:5356   */\n      dup4\n        /* \"#utility.yul\":5328:5367   */\n      tag_42\n      jump\t// in\n    tag_112:\n        /* \"#utility.yul\":5316:5367   */\n      swap6\n      pop\n        /* \"#utility.yul\":5400:5404   */\n      dup1\n        /* \"#utility.yul\":5396:5405   */\n      not\n        /* \"#utility.yul\":5389:5394   */\n      dup5\n        /* \"#utility.yul\":5385:5406   */\n      and\n        /* \"#utility.yul\":5376:5406   */\n      swap4\n      pop\n        /* \"#utility.yul\":5449:5453   */\n      dup1\n        /* \"#utility.yul\":5439:5447   */\n      dup7\n        /* \"#utility.yul\":5435:5454   */\n      and\n        /* \"#utility.yul\":5428:5433   */\n      dup5\n        /* \"#utility.yul\":5425:5455   */\n      or\n        /* \"#utility.yul\":5415:5455   */\n      swap3\n      pop\n        /* \"#utility.yul\":5144:5461   */\n      pop\n      pop\n        /* \"#utility.yul\":5068:5461   */\n      swap4\n      swap3\n      pop\n      pop\n      pop\n      jump\t// out\n        /* \"#utility.yul\":5467:5544   */\n    tag_44:\n        /* \"#utility.yul\":5504:5511   */\n      0x00\n        /* \"#utility.yul\":5533:5538   */\n      dup2\n        /* \"#utility.yul\":5522:5538   */\n      swap1\n      pop\n        /* \"#utility.yul\":5467:5544   */\n      swap2\n      swap1\n      pop\n      jump\t// out\n        /* \"#utility.yul\":5550:5610   */\n    tag_45:\n        /* \"#utility.yul\":5578:5581   */\n      0x00\n        /* \"#utility.yul\":5599:5604   */\n      dup2\n        /* \"#utility.yul\":5592:5604   */\n      swap1\n      pop\n        /* \"#utility.yul\":5550:5610   */\n      swap2\n      swap1\n      pop\n      jump\t// out\n        /* \"#utility.yul\":5616:5758   */\n    tag_46:\n        /* \"#utility.yul\":5666:5675   */\n      0x00\n        /* \"#utility.yul\":5699:5752   */\n      tag_116\n        /* \"#utility.yul\":5717:5751   */\n      tag_117\n        /* \"#utility.yul\":5726:5750   */\n      tag_118\n        /* \"#utility.yul\":5744:5749   */\n      dup5\n        /* \"#utility.yul\":5726:5750   */\n      tag_44\n      jump\t// in\n    tag_118:\n        /* \"#utility.yul\":5717:5751   */\n      tag_45\n      jump\t// in\n    tag_117:\n        /* \"#utility.yul\":5699:5752   */\n      tag_44\n      jump\t// in\n    tag_116:\n        /* \"#utility.yul\":5686:5752   */\n      swap1\n      pop\n        /* \"#utility.yul\":5616:5758   */\n      swap2\n      swap1\n      pop\n      jump\t// out\n        /* \"#utility.yul\":5764:5839   */\n    tag_47:\n        /* \"#utility.yul\":5807:5810   */\n      0x00\n        /* \"#utility.yul\":5828:5833   */\n      dup2\n        /* \"#utility.yul\":5821:5833   */\n      swap1\n      pop\n        /* \"#utility.yul\":5764:5839   */\n      swap2\n      swap1\n      pop\n      jump\t// out\n        /* \"#utility.yul\":5845:6114   */\n    tag_48:\n        /* \"#utility.yul\":5955:5994   */\n      tag_121\n        /* \"#utility.yul\":5986:5993   */\n      dup4\n        /* \"#utility.yul\":5955:5994   */\n      tag_46\n      jump\t// in\n    tag_121:\n        /* \"#utility.yul\":6016:6107   */\n      tag_122\n        /* \"#utility.yul\":6065:6106   */\n      tag_123\n        /* \"#utility.yul\":6089:6105   */\n      dup3\n        /* \"#utility.yul\":6065:6106   */\n      tag_47\n      jump\t// in\n    tag_123:\n        /* \"#utility.yul\":6057:6063   */\n      dup5\n        /* \"#utility.yul\":6050:6054   */\n      dup5\n        /* \"#utility.yul\":6044:6055   */\n      sload\n        /* \"#utility.yul\":6016:6107   */\n      tag_43\n      jump\t// in\n    tag_122:\n        /* \"#utility.yul\":6010:6014   */\n      dup3\n        /* \"#utility.yul\":6003:6108   */\n      sstore\n        /* \"#utility.yul\":5921:6114   */\n      pop\n        /* \"#utility.yul\":5845:6114   */\n      pop\n      pop\n      pop\n      jump\t// out\n        /* \"#utility.yul\":6120:6193   */\n    tag_49:\n        /* \"#utility.yul\":6165:6168   */\n      0x00\n        /* \"#utility.yul\":6186:6187   */\n      0x00\n        /* \"#utility.yul\":6179:6187   */\n      swap1\n      pop\n        /* \"#utility.yul\":6120:6193   */\n      swap1\n      jump\t// out\n        /* \"#utility.yul\":6199:6388   */\n    tag_50:\n        /* \"#utility.yul\":6276:6308   */\n      tag_126\n      tag_49\n      jump\t// in\n    tag_126:\n        /* \"#utility.yul\":6317:6382   */\n      tag_127\n        /* \"#utility.yul\":6375:6381   */\n      dup2\n        /* \"#utility.yul\":6367:6373   */\n      dup5\n        /* \"#utility.yul\":6361:6365   */\n      dup5\n        /* \"#utility.yul\":6317:6382   */\n      tag_48\n      jump\t// in\n    tag_127:\n        /* \"#utility.yul\":6252:6388   */\n      pop\n        /* \"#utility.yul\":6199:6388   */\n      pop\n      pop\n      jump\t// out\n        /* \"#utility.yul\":6394:6608   */\n    tag_51:\n        /* \"#utility.yul\":6479:6480   */\n      0x00\n        /* \"#utility.yul\":6464:6602   */\n    tag_129:\n        /* \"#utility.yul\":6489:6498   */\n      dup3\n        /* \"#utility.yul\":6486:6487   */\n      dup2\n        /* \"#utility.yul\":6483:6499   */\n      lt\n        /* \"#utility.yul\":6464:6602   */\n      iszero\n      tag_131\n      jumpi\n        /* \"#utility.yul\":6541:6592   */\n      tag_132\n        /* \"#utility.yul\":6590:6591   */\n      0x00\n        /* \"#utility.yul\":6586:6587   */\n      dup3\n        /* \"#utility.yul\":6575:6584   */\n      dup5\n        /* \"#utility.yul\":6571:6588   */\n      add\n        /* \"#utility.yul\":6541:6592   */\n      tag_50\n      jump\t// in\n    tag_132:\n        /* \"#utility.yul\":6514:6515   */\n      0x01\n        /* \"#utility.yul\":6511:6512   */\n      dup2\n        /* \"#utility.yul\":6507:6516   */\n      add\n        /* \"#utility.yul\":6502:6516   */\n      swap1\n      pop\n        /* \"#utility.yul\":6464:6602   */\n      jump(tag_129)\n    tag_131:\n        /* \"#utility.yul\":6468:6482   */\n      pop\n        /* \"#utility.yul\":6394:6608   */\n      pop\n      pop\n      jump\t// out\n        /* \"#utility.yul\":6614:7360   */\n    tag_52:\n        /* \"#utility.yul\":6715:6717   */\n      0x1f\n        /* \"#utility.yul\":6710:6713   */\n      dup3\n        /* \"#utility.yul\":6707:6718   */\n      gt\n        /* \"#utility.yul\":6704:7353   */\n      iszero\n      tag_134\n      jumpi\n        /* \"#utility.yul\":6744:6754   */\n      dup3\n        /* \"#utility.yul\":6739:6742   */\n      dup3\n        /* \"#utility.yul\":6736:6755   */\n      gt\n        /* \"#utility.yul\":6733:7343   */\n      iszero\n      tag_135\n      jumpi\n        /* \"#utility.yul\":6790:6828   */\n      tag_136\n        /* \"#utility.yul\":6822:6827   */\n      dup2\n        /* \"#utility.yul\":6790:6828   */\n      tag_40\n      jump\t// in\n    tag_136:\n        /* \"#utility.yul\":6865:6887   */\n      tag_137\n        /* \"#utility.yul\":6883:6886   */\n      dup4\n        /* \"#utility.yul\":6865:6887   */\n      tag_41\n      jump\t// in\n    tag_137:\n        /* \"#utility.yul\":6924:6953   */\n      tag_138\n        /* \"#utility.yul\":6942:6952   */\n      dup6\n        /* \"#utility.yul\":6924:6953   */\n      tag_41\n      jump\t// in\n    tag_138:\n        /* \"#utility.yul\":7114:7116   */\n      0x20\n        /* \"#utility.yul\":7102:7112   */\n      dup7\n        /* \"#utility.yul\":7099:7117   */\n      lt\n        /* \"#utility.yul\":7096:7175   */\n      iszero\n      tag_139\n      jumpi\n        /* \"#utility.yul\":7156:7157   */\n      0x00\n        /* \"#utility.yul\":7140:7157   */\n      swap1\n      pop\n        /* \"#utility.yul\":7096:7175   */\n    tag_139:\n        /* \"#utility.yul\":7225:7237   */\n      dup1\n        /* \"#utility.yul\":7215:7223   */\n      dup4\n        /* \"#utility.yul\":7211:7238   */\n      add\n        /* \"#utility.yul\":7255:7329   */\n      tag_140\n        /* \"#utility.yul\":7315:7327   */\n      dup3\n        /* \"#utility.yul\":7301:7313   */\n      dup5\n        /* \"#utility.yul\":7297:7328   */\n      sub\n        /* \"#utility.yul\":7284:7295   */\n      dup3\n        /* \"#utility.yul\":7255:7329   */\n      tag_51\n      jump\t// in\n    tag_140:\n        /* \"#utility.yul\":6756:7343   */\n      pop\n      pop\n      pop\n      pop\n        /* \"#utility.yul\":6733:7343   */\n    tag_135:\n        /* \"#utility.yul\":6704:7353   */\n    tag_134:\n        /* \"#utility.yul\":6614:7360   */\n      pop\n      pop\n      pop\n      jump\t// out\n        /* \"#utility.yul\":7366:7483   */\n    tag_53:\n        /* \"#utility.yul\":7420:7428   */\n      0x00\n        /* \"#utility.yul\":7470:7475   */\n      dup3\n        /* \"#utility.yul\":7464:7468   */\n      dup3\n        /* \"#utility.yul\":7460:7476   */\n      shr\n        /* \"#utility.yul\":7439:7476   */\n      swap1\n      pop\n        /* \"#utility.yul\":7366:7483   */\n      swap3\n      swap2\n      pop\n      pop\n      jump\t// out\n        /* \"#utility.yul\":7489:7658   */\n    tag_54:\n        /* \"#utility.yul\":7533:7539   */\n      0x00\n        /* \"#utility.yul\":7566:7617   */\n      tag_143\n        /* \"#utility.yul\":7614:7615   */\n      0x00\n        /* \"#utility.yul\":7610:7616   */\n      not\n        /* \"#utility.yul\":7602:7607   */\n      dup5\n        /* \"#utility.yul\":7599:7600   */\n      0x08\n        /* \"#utility.yul\":7595:7608   */\n      mul\n        /* \"#utility.yul\":7566:7617   */\n      tag_53\n      jump\t// in\n    tag_143:\n        /* \"#utility.yul\":7562:7618   */\n      not\n        /* \"#utility.yul\":7647:7651   */\n      dup1\n        /* \"#utility.yul\":7641:7645   */\n      dup4\n        /* \"#utility.yul\":7637:7652   */\n      and\n        /* \"#utility.yul\":7627:7652   */\n      swap2\n      pop\n        /* \"#utility.yul\":7540:7658   */\n      pop\n        /* \"#utility.yul\":7489:7658   */\n      swap3\n      swap2\n      pop\n      pop\n      jump\t// out\n        /* \"#utility.yul\":7663:7958   */\n    tag_55:\n        /* \"#utility.yul\":7739:7743   */\n      0x00\n        /* \"#utility.yul\":7885:7914   */\n      tag_145\n        /* \"#utility.yul\":7910:7913   */\n      dup4\n        /* \"#utility.yul\":7904:7908   */\n      dup4\n        /* \"#utility.yul\":7885:7914   */\n      tag_54\n      jump\t// in\n    tag_145:\n        /* \"#utility.yul\":7877:7914   */\n      swap2\n      pop\n        /* \"#utility.yul\":7947:7950   */\n      dup3\n        /* \"#utility.yul\":7944:7945   */\n      0x02\n        /* \"#utility.yul\":7940:7951   */\n      mul\n        /* \"#utility.yul\":7934:7938   */\n      dup3\n        /* \"#utility.yul\":7931:7952   */\n      or\n        /* \"#utility.yul\":7923:7952   */\n      swap1\n      pop\n        /* \"#utility.yul\":7663:7958   */\n      swap3\n      swap2\n      pop\n      pop\n      jump\t// out\n        /* \"#utility.yul\":7963:9358   */\n    tag_21:\n        /* \"#utility.yul\":8080:8117   */\n      tag_147\n        /* \"#utility.yul\":8113:8116   */\n      dup3\n        /* \"#utility.yul\":8080:8117   */\n      tag_22\n      jump\t// in\n    tag_147:\n        /* \"#utility.yul\":8182:8200   */\n      0xffffffffffffffff\n        /* \"#utility.yul\":8174:8180   */\n      dup2\n        /* \"#utility.yul\":8171:8201   */\n      gt\n        /* \"#utility.yul\":8168:8224   */\n      iszero\n      tag_148\n      jumpi\n        /* \"#utility.yul\":8204:8222   */\n      tag_149\n      tag_32\n      jump\t// in\n    tag_149:\n        /* \"#utility.yul\":8168:8224   */\n    tag_148:\n        /* \"#utility.yul\":8248:8286   */\n      tag_150\n        /* \"#utility.yul\":8280:8284   */\n      dup3\n        /* \"#utility.yul\":8274:8285   */\n      sload\n        /* \"#utility.yul\":8248:8286   */\n      tag_14\n      jump\t// in\n    tag_150:\n        /* \"#utility.yul\":8333:8400   */\n      tag_151\n        /* \"#utility.yul\":8393:8399   */\n      dup3\n        /* \"#utility.yul\":8385:8391   */\n      dup3\n        /* \"#utility.yul\":8379:8383   */\n      dup6\n        /* \"#utility.yul\":8333:8400   */\n      tag_52\n      jump\t// in\n    tag_151:\n        /* \"#utility.yul\":8427:8428   */\n      0x00\n        /* \"#utility.yul\":8451:8455   */\n      0x20\n        /* \"#utility.yul\":8438:8455   */\n      swap1\n      pop\n        /* \"#utility.yul\":8483:8485   */\n      0x1f\n        /* \"#utility.yul\":8475:8481   */\n      dup4\n        /* \"#utility.yul\":8472:8486   */\n      gt\n        /* \"#utility.yul\":8500:8501   */\n      0x01\n        /* \"#utility.yul\":8495:9113   */\n      dup2\n      eq\n      tag_153\n      jumpi\n        /* \"#utility.yul\":9157:9158   */\n      0x00\n        /* \"#utility.yul\":9174:9180   */\n      dup5\n        /* \"#utility.yul\":9171:9248   */\n      iszero\n      tag_154\n      jumpi\n        /* \"#utility.yul\":9223:9232   */\n      dup3\n        /* \"#utility.yul\":9218:9221   */\n      dup8\n        /* \"#utility.yul\":9214:9233   */\n      add\n        /* \"#utility.yul\":9208:9234   */\n      mload\n        /* \"#utility.yul\":9199:9234   */\n      swap1\n      pop\n        /* \"#utility.yul\":9171:9248   */\n    tag_154:\n        /* \"#utility.yul\":9274:9341   */\n      tag_155\n        /* \"#utility.yul\":9334:9340   */\n      dup6\n        /* \"#utility.yul\":9327:9332   */\n      dup3\n        /* \"#utility.yul\":9274:9341   */\n      tag_55\n      jump\t// in\n    tag_155:\n        /* \"#utility.yul\":9268:9272   */\n      dup7\n        /* \"#utility.yul\":9261:9342   */\n      sstore\n        /* \"#utility.yul\":9130:9352   */\n      pop\n        /* \"#utility.yul\":8465:9352   */\n      jump(tag_152)\n        /* \"#utility.yul\":8495:9113   */\n    tag_153:\n        /* \"#utility.yul\":8547:8551   */\n      0x1f\n        /* \"#utility.yul\":8543:8552   */\n      not\n        /* \"#utility.yul\":8535:8541   */\n      dup5\n        /* \"#utility.yul\":8531:8553   */\n      and\n        /* \"#utility.yul\":8581:8618   */\n      tag_156\n        /* \"#utility.yul\":8613:8617   */\n      dup7\n        /* \"#utility.yul\":8581:8618   */\n      tag_40\n      jump\t// in\n    tag_156:\n        /* \"#utility.yul\":8640:8641   */\n      0x00\n        /* \"#utility.yul\":8654:8862   */\n    tag_157:\n        /* \"#utility.yul\":8668:8675   */\n      dup3\n        /* \"#utility.yul\":8665:8666   */\n      dup2\n        /* \"#utility.yul\":8662:8676   */\n      lt\n        /* \"#utility.yul\":8654:8862   */\n      iszero\n      tag_159\n      jumpi\n        /* \"#utility.yul\":8747:8756   */\n      dup5\n        /* \"#utility.yul\":8742:8745   */\n      dup10\n        /* \"#utility.yul\":8738:8757   */\n      add\n        /* \"#utility.yul\":8732:8758   */\n      mload\n        /* \"#utility.yul\":8724:8730   */\n      dup3\n        /* \"#utility.yul\":8717:8759   */\n      sstore\n        /* \"#utility.yul\":8798:8799   */\n      0x01\n        /* \"#utility.yul\":8790:8796   */\n      dup3\n        /* \"#utility.yul\":8786:8800   */\n      add\n        /* \"#utility.yul\":8776:8800   */\n      swap2\n      pop\n        /* \"#utility.yul\":8845:8847   */\n      0x20\n        /* \"#utility.yul\":8834:8843   */\n      dup6\n        /* \"#utility.yul\":8830:8848   */\n      add\n        /* \"#utility.yul\":8817:8848   */\n      swap5\n      pop\n        /* \"#utility.yul\":8691:8695   */\n      0x20\n        /* \"#utility.yul\":8688:8689   */\n      dup2\n        /* \"#utility.yul\":8684:8696   */\n      add\n        /* \"#utility.yul\":8679:8696   */\n      swap1\n      pop\n        /* \"#utility.yul\":8654:8862   */\n      jump(tag_157)\n    tag_159:\n        /* \"#utility.yul\":8890:8896   */\n      dup7\n        /* \"#utility.yul\":8881:8888   */\n      dup4\n        /* \"#utility.yul\":8878:8897   */\n      lt\n        /* \"#utility.yul\":8875:9054   */\n      iszero\n      tag_160\n      jumpi\n        /* \"#utility.yul\":8948:8957   */\n      dup5\n        /* \"#utility.yul\":8943:8946   */\n      dup10\n        /* \"#utility.yul\":8939:8958   */\n      add\n        /* \"#utility.yul\":8933:8959   */\n      mload\n        /* \"#utility.yul\":8991:9039   */\n      tag_161\n        /* \"#utility.yul\":9033:9037   */\n      0x1f\n        /* \"#utility.yul\":9025:9031   */\n      dup10\n        /* \"#utility.yul\":9021:9038   */\n      and\n        /* \"#utility.yul\":9010:9019   */\n      dup3\n        /* \"#utility.yul\":8991:9039   */\n      tag_54\n      jump\t// in\n    tag_161:\n        /* \"#utility.yul\":8983:8989   */\n      dup4\n        /* \"#utility.yul\":8976:9040   */\n      sstore\n        /* \"#utility.yul\":8898:9054   */\n      pop\n        /* \"#utility.yul\":8875:9054   */\n    tag_160:\n        /* \"#utility.yul\":9100:9101   */\n      0x01\n        /* \"#utility.yul\":9096:9097   */\n      0x02\n        /* \"#utility.yul\":9088:9094   */\n      dup9\n        /* \"#utility.yul\":9084:9098   */\n      mul\n        /* \"#utility.yul\":9080:9102   */\n      add\n        /* \"#utility.yul\":9074:9078   */\n      dup9\n        /* \"#utility.yul\":9067:9103   */\n      sstore\n        /* \"#utility.yul\":8502:9113   */\n      pop\n      pop\n      pop\n        /* \"#utility.yul\":8465:9352   */\n    tag_152:\n      pop\n        /* \"#utility.yul\":8055:9358   */\n      pop\n      pop\n      pop\n        /* \"#utility.yul\":7963:9358   */\n      pop\n      pop\n      jump\t// out\n\n    auxdata: 0xa2646970667358221220e39dd45ce4c36647408532a88716e7b79d14b126c44dc5906aa60725c4800c4264736f6c63430008220033\n}\n",
				"bytecode": {
					"linkReferences": {},
					"object": "60806040526040518060400160405280600b81526020017f48656c6c6f20576f726c640000000000000000000000000000000000000000008152505f908161004791906102a7565b50348015610053575f5ffd5b50610376565b5f81519050919050565b7f4e487b71000000000000000000000000000000000000000000000000000000005f52604160045260245ffd5b7f4e487b71000000000000000000000000000000000000000000000000000000005f52602260045260245ffd5b5f60028204905060018216806100d457607f821691505b6020821081036100e7576100e6610090565b5b50919050565b5f819050815f5260205f209050919050565b5f6020601f8301049050919050565b5f82821b905092915050565b5f600883026101497fffffffffffffffffffffffffffffffffffffffffffffffffffffffffffffffff8261010e565b610153868361010e565b95508019841693508086168417925050509392505050565b5f819050919050565b5f819050919050565b5f61019761019261018d8461016b565b610174565b61016b565b9050919050565b5f819050919050565b6101b08361017d565b6101c46101bc8261019e565b84845461011a565b825550505050565b5f5f905090565b6101db6101cc565b6101e68184846101a7565b505050565b5f5b8281101561020c576102015f8284016101d3565b6001810190506101ed565b505050565b601f82111561025f578282111561025e5761022b816100ed565b610234836100ff565b61023d856100ff565b602086101561024a575f90505b808301610259828403826101eb565b505050505b5b505050565b5f82821c905092915050565b5f61027f5f1984600802610264565b1980831691505092915050565b5f6102978383610270565b9150826002028217905092915050565b6102b082610059565b67ffffffffffffffff8111156102c9576102c8610063565b5b6102d382546100bd565b6102de828285610211565b5f60209050601f83116001811461030f575f84156102fd578287015190505b610307858261028c565b86555061036e565b601f19841661031d866100ed565b5f5b828110156103445784890151825560018201915060208501945060208101905061031f565b86831015610361578489015161035d601f891682610270565b8355505b6001600288020188555050505b505050505050565b61063f806103835f395ff3fe608060405234801561000f575f5ffd5b5060043610610034575f3560e01c8063492bfa18146100385780638218056814610056575b5f5ffd5b610040610072565b60405161004d919061017f565b60405180910390f35b610070600480360381019061006b91906102dc565b6100fd565b005b5f805461007e90610350565b80601f01602080910402602001604051908101604052809291908181526020018280546100aa90610350565b80156100f55780601f106100cc576101008083540402835291602001916100f5565b820191905f5260205f20905b8154815290600101906020018083116100d857829003601f168201915b505050505081565b805f908161010b919061053a565b5050565b5f81519050919050565b5f82825260208201905092915050565b8281835e5f83830152505050565b5f601f19601f8301169050919050565b5f6101518261010f565b61015b8185610119565b935061016b818560208601610129565b61017481610137565b840191505092915050565b5f6020820190508181035f8301526101978184610147565b905092915050565b5f604051905090565b5f5ffd5b5f5ffd5b5f5ffd5b5f5ffd5b7f4e487b71000000000000000000000000000000000000000000000000000000005f52604160045260245ffd5b6101ee82610137565b810181811067ffffffffffffffff8211171561020d5761020c6101b8565b5b80604052505050565b5f61021f61019f565b905061022b82826101e5565b919050565b5f67ffffffffffffffff82111561024a576102496101b8565b5b61025382610137565b9050602081019050919050565b828183375f83830152505050565b5f61028061027b84610230565b610216565b90508281526020810184848401111561029c5761029b6101b4565b5b6102a7848285610260565b509392505050565b5f82601f8301126102c3576102c26101b0565b5b81356102d384826020860161026e565b91505092915050565b5f602082840312156102f1576102f06101a8565b5b5f82013567ffffffffffffffff81111561030e5761030d6101ac565b5b61031a848285016102af565b91505092915050565b7f4e487b71000000000000000000000000000000000000000000000000000000005f52602260045260245ffd5b5f600282049050600182168061036757607f821691505b60208210810361037a57610379610323565b5b50919050565b5f819050815f5260205f209050919050565b5f6020601f8301049050919050565b5f82821b905092915050565b5f600883026103dc7fffffffffffffffffffffffffffffffffffffffffffffffffffffffffffffffff826103a1565b6103e686836103a1565b95508019841693508086168417925050509392505050565b5f819050919050565b5f819050919050565b5f61042a610425610420846103fe565b610407565b6103fe565b9050919050565b5f819050919050565b61044383610410565b61045761044f82610431565b8484546103ad565b825550505050565b5f5f905090565b61046e61045f565b61047981848461043a565b505050565b5f5b8281101561049f576104945f828401610466565b600181019050610480565b505050565b601f8211156104f257828211156104f1576104be81610380565b6104c783610392565b6104d085610392565b60208610156104dd575f90505b8083016104ec8284038261047e565b505050505b5b505050565b5f82821c905092915050565b5f6105125f19846008026104f7565b1980831691505092915050565b5f61052a8383610503565b9150826002028217905092915050565b6105438261010f565b67ffffffffffffffff81111561055c5761055b6101b8565b5b6105668254610350565b6105718282856104a4565b5f60209050601f8311600181146105a2575f8415610590578287015190505b61059a858261051f565b865550610601565b601f1984166105b086610380565b5f5b828110156105d7578489015182556001820191506020850194506020810190506105b2565b868310156105f457848901516105f0601f891682610503565b8355505b6001600288020188555050505b50505050505056fea2646970667358221220e39dd45ce4c36647408532a88716e7b79d14b126c44dc5906aa60725c4800c4264736f6c63430008220033",
					"opcodes": "PUSH1 0x80 PUSH1 0x40 MSTORE PUSH1 0x40 MLOAD DUP1 PUSH1 0x40 ADD PUSH1 0x40 MSTORE DUP1 PUSH1 0xB DUP2 MSTORE PUSH1 0x20 ADD PUSH32 0x48656C6C6F20576F726C64000000000000000000000000000000000000000000 DUP2 MSTORE POP PUSH0 SWAP1 DUP2 PUSH2 0x47 SWAP2 SWAP1 PUSH2 0x2A7 JUMP JUMPDEST POP CALLVALUE DUP1 ISZERO PUSH2 0x53 JUMPI PUSH0 PUSH0 REVERT JUMPDEST POP PUSH2 0x376 JUMP JUMPDEST PUSH0 DUP2 MLOAD SWAP1 POP SWAP2 SWAP1 POP JUMP JUMPDEST PUSH32 0x4E487B7100000000000000000000000000000000000000000000000000000000 PUSH0 MSTORE PUSH1 0x41 PUSH1 0x4 MSTORE PUSH1 0x24 PUSH0 REVERT JUMPDEST PUSH32 0x4E487B7100000000000000000000000000000000000000000000000000000000 PUSH0 MSTORE PUSH1 0x22 PUSH1 0x4 MSTORE PUSH1 0x24 PUSH0 REVERT JUMPDEST PUSH0 PUSH1 0x2 DUP3 DIV SWAP1 POP PUSH1 0x1 DUP3 AND DUP1 PUSH2 0xD4 JUMPI PUSH1 0x7F DUP3 AND SWAP2 POP JUMPDEST PUSH1 0x20 DUP3 LT DUP2 SUB PUSH2 0xE7 JUMPI PUSH2 0xE6 PUSH2 0x90 JUMP JUMPDEST JUMPDEST POP SWAP2 SWAP1 POP JUMP JUMPDEST PUSH0 DUP2 SWAP1 POP DUP2 PUSH0 MSTORE PUSH1 0x20 PUSH0 KECCAK256 SWAP1 POP SWAP2 SWAP1 POP JUMP JUMPDEST PUSH0 PUSH1 0x20 PUSH1 0x1F DUP4 ADD DIV SWAP1 POP SWAP2 SWAP1 POP JUMP JUMPDEST PUSH0 DUP3 DUP3 SHL SWAP1 POP SWAP3 SWAP2 POP POP JUMP JUMPDEST PUSH0 PUSH1 0x8 DUP4 MUL PUSH2 0x149 PUSH32 0xFFFFFFFFFFFFFFFFFFFFFFFFFFFFFFFFFFFFFFFFFFFFFFFFFFFFFFFFFFFFFFFF DUP3 PUSH2 0x10E JUMP JUMPDEST PUSH2 0x153 DUP7 DUP4 PUSH2 0x10E JUMP JUMPDEST SWAP6 POP DUP1 NOT DUP5 AND SWAP4 POP DUP1 DUP7 AND DUP5 OR SWAP3 POP POP POP SWAP4 SWAP3 POP POP POP JUMP JUMPDEST PUSH0 DUP2 SWAP1 POP SWAP2 SWAP1 POP JUMP JUMPDEST PUSH0 DUP2 SWAP1 POP SWAP2 SWAP1 POP JUMP JUMPDEST PUSH0 PUSH2 0x197 PUSH2 0x192 PUSH2 0x18D DUP5 PUSH2 0x16B JUMP JUMPDEST PUSH2 0x174 JUMP JUMPDEST PUSH2 0x16B JUMP JUMPDEST SWAP1 POP SWAP2 SWAP1 POP JUMP JUMPDEST PUSH0 DUP2 SWAP1 POP SWAP2 SWAP1 POP JUMP JUMPDEST PUSH2 0x1B0 DUP4 PUSH2 0x17D JUMP JUMPDEST PUSH2 0x1C4 PUSH2 0x1BC DUP3 PUSH2 0x19E JUMP JUMPDEST DUP5 DUP5 SLOAD PUSH2 0x11A JUMP JUMPDEST DUP3 SSTORE POP POP POP POP JUMP JUMPDEST PUSH0 PUSH0 SWAP1 POP SWAP1 JUMP JUMPDEST PUSH2 0x1DB PUSH2 0x1CC JUMP JUMPDEST PUSH2 0x1E6 DUP2 DUP5 DUP5 PUSH2 0x1A7 JUMP JUMPDEST POP POP POP JUMP JUMPDEST PUSH0 JUMPDEST DUP3 DUP2 LT ISZERO PUSH2 0x20C JUMPI PUSH2 0x201 PUSH0 DUP3 DUP5 ADD PUSH2 0x1D3 JUMP JUMPDEST PUSH1 0x1 DUP2 ADD SWAP1 POP PUSH2 0x1ED JUMP JUMPDEST POP POP POP JUMP JUMPDEST PUSH1 0x1F DUP3 GT ISZERO PUSH2 0x25F JUMPI DUP3 DUP3 GT ISZERO PUSH2 0x25E JUMPI PUSH2 0x22B DUP2 PUSH2 0xED JUMP JUMPDEST PUSH2 0x234 DUP4 PUSH2 0xFF JUMP JUMPDEST PUSH2 0x23D DUP6 PUSH2 0xFF JUMP JUMPDEST PUSH1 0x20 DUP7 LT ISZERO PUSH2 0x24A JUMPI PUSH0 SWAP1 POP JUMPDEST DUP1 DUP4 ADD PUSH2 0x259 DUP3 DUP5 SUB DUP3 PUSH2 0x1EB JUMP JUMPDEST POP POP POP POP JUMPDEST JUMPDEST POP POP POP JUMP JUMPDEST PUSH0 DUP3 DUP3 SHR SWAP1 POP SWAP3 SWAP2 POP POP JUMP JUMPDEST PUSH0 PUSH2 0x27F PUSH0 NOT DUP5 PUSH1 0x8 MUL PUSH2 0x264 JUMP JUMPDEST NOT DUP1 DUP4 AND SWAP2 POP POP SWAP3 SWAP2 POP POP JUMP JUMPDEST PUSH0 PUSH2 0x297 DUP4 DUP4 PUSH2 0x270 JUMP JUMPDEST SWAP2 POP DUP3 PUSH1 0x2 MUL DUP3 OR SWAP1 POP SWAP3 SWAP2 POP POP JUMP JUMPDEST PUSH2 0x2B0 DUP3 PUSH2 0x59 JUMP JUMPDEST PUSH8 0xFFFFFFFFFFFFFFFF DUP2 GT ISZERO PUSH2 0x2C9 JUMPI PUSH2 0x2C8 PUSH2 0x63 JUMP JUMPDEST JUMPDEST PUSH2 0x2D3 DUP3 SLOAD PUSH2 0xBD JUMP JUMPDEST PUSH2 0x2DE DUP3 DUP3 DUP6 PUSH2 0x211 JUMP JUMPDEST PUSH0 PUSH1 0x20 SWAP1 POP PUSH1 0x1F DUP4 GT PUSH1 0x1 DUP2 EQ PUSH2 0x30F JUMPI PUSH0 DUP5 ISZERO PUSH2 0x2FD JUMPI DUP3 DUP8 ADD MLOAD SWAP1 POP JUMPDEST PUSH2 0x307 DUP6 DUP3 PUSH2 0x28C JUMP JUMPDEST DUP7 SSTORE POP PUSH2 0x36E JUMP JUMPDEST PUSH1 0x1F NOT DUP5 AND PUSH2 0x31D DUP7 PUSH2 0xED JUMP JUMPDEST PUSH0 JUMPDEST DUP3 DUP2 LT ISZERO PUSH2 0x344 JUMPI DUP5 DUP10 ADD MLOAD DUP3 SSTORE PUSH1 0x1 DUP3 ADD SWAP2 POP PUSH1 0x20 DUP6 ADD SWAP5 POP PUSH1 0x20 DUP2 ADD SWAP1 POP PUSH2 0x31F JUMP JUMPDEST DUP7 DUP4 LT ISZERO PUSH2 0x361 JUMPI DUP5 DUP10 ADD MLOAD PUSH2 0x35D PUSH1 0x1F DUP10 AND DUP3 PUSH2 0x270 JUMP JUMPDEST DUP4 SSTORE POP JUMPDEST PUSH1 0x1 PUSH1 0x2 DUP9 MUL ADD DUP9 SSTORE POP POP POP JUMPDEST POP POP POP POP POP POP JUMP JUMPDEST PUSH2 0x63F DUP1 PUSH2 0x383 PUSH0 CODECOPY PUSH0 RETURN INVALID PUSH1 0x80 PUSH1 0x40 MSTORE CALLVALUE DUP1 ISZERO PUSH2 0xF JUMPI PUSH0 PUSH0 REVERT JUMPDEST POP PUSH1 0x4 CALLDATASIZE LT PUSH2 0x34 JUMPI PUSH0 CALLDATALOAD PUSH1 0xE0 SHR DUP1 PUSH4 0x492BFA18 EQ PUSH2 0x38 JUMPI DUP1 PUSH4 0x82180568 EQ PUSH2 0x56 JUMPI JUMPDEST PUSH0 PUSH0 REVERT JUMPDEST PUSH2 0x40 PUSH2 0x72 JUMP JUMPDEST PUSH1 0x40 MLOAD PUSH2 0x4D SWAP2 SWAP1 PUSH2 0x17F JUMP JUMPDEST PUSH1 0x40 MLOAD DUP1 SWAP2 SUB SWAP1 RETURN JUMPDEST PUSH2 0x70 PUSH1 0x4 DUP1 CALLDATASIZE SUB DUP2 ADD SWAP1 PUSH2 0x6B SWAP2 SWAP1 PUSH2 0x2DC JUMP JUMPDEST PUSH2 0xFD JUMP JUMPDEST STOP JUMPDEST PUSH0 DUP1 SLOAD PUSH2 0x7E SWAP1 PUSH2 0x350 JUMP JUMPDEST DUP1 PUSH1 0x1F ADD PUSH1 0x20 DUP1 SWAP2 DIV MUL PUSH1 0x20 ADD PUSH1 0x40 MLOAD SWAP1 DUP2 ADD PUSH1 0x40 MSTORE DUP1 SWAP3 SWAP2 SWAP1 DUP2 DUP2 MSTORE PUSH1 0x20 ADD DUP3 DUP1 SLOAD PUSH2 0xAA SWAP1 PUSH2 0x350 JUMP JUMPDEST DUP1 ISZERO PUSH2 0xF5 JUMPI DUP1 PUSH1 0x1F LT PUSH2 0xCC JUMPI PUSH2 0x100 DUP1 DUP4 SLOAD DIV MUL DUP4 MSTORE SWAP2 PUSH1 0x20 ADD SWAP2 PUSH2 0xF5 JUMP JUMPDEST DUP3 ADD SWAP2 SWAP1 PUSH0 MSTORE PUSH1 0x20 PUSH0 KECCAK256 SWAP1 JUMPDEST DUP2 SLOAD DUP2 MSTORE SWAP1 PUSH1 0x1 ADD SWAP1 PUSH1 0x20 ADD DUP1 DUP4 GT PUSH2 0xD8 JUMPI DUP3 SWAP1 SUB PUSH1 0x1F AND DUP3 ADD SWAP2 JUMPDEST POP POP POP POP POP DUP2 JUMP JUMPDEST DUP1 PUSH0 SWAP1 DUP2 PUSH2 0x10B SWAP2 SWAP1 PUSH2 0x53A JUMP JUMPDEST POP POP JUMP JUMPDEST PUSH0 DUP2 MLOAD SWAP1 POP SWAP2 SWAP1 POP JUMP JUMPDEST PUSH0 DUP3 DUP3 MSTORE PUSH1 0x20 DUP3 ADD SWAP1 POP SWAP3 SWAP2 POP POP JUMP JUMPDEST DUP3 DUP2 DUP4 MCOPY PUSH0 DUP4 DUP4 ADD MSTORE POP POP POP JUMP JUMPDEST PUSH0 PUSH1 0x1F NOT PUSH1 0x1F DUP4 ADD AND SWAP1 POP SWAP2 SWAP1 POP JUMP JUMPDEST PUSH0 PUSH2 0x151 DUP3 PUSH2 0x10F JUMP JUMPDEST PUSH2 0x15B DUP2 DUP6 PUSH2 0x119 JUMP JUMPDEST SWAP4 POP PUSH2 0x16B DUP2 DUP6 PUSH1 0x20 DUP7 ADD PUSH2 0x129 JUMP JUMPDEST PUSH2 0x174 DUP2 PUSH2 0x137 JUMP JUMPDEST DUP5 ADD SWAP2 POP POP SWAP3 SWAP2 POP POP JUMP JUMPDEST PUSH0 PUSH1 0x20 DUP3 ADD SWAP1 POP DUP2 DUP2 SUB PUSH0 DUP4 ADD MSTORE PUSH2 0x197 DUP2 DUP5 PUSH2 0x147 JUMP JUMPDEST SWAP1 POP SWAP3 SWAP2 POP POP JUMP JUMPDEST PUSH0 PUSH1 0x40 MLOAD SWAP1 POP SWAP1 JUMP JUMPDEST PUSH0 PUSH0 REVERT JUMPDEST PUSH0 PUSH0 REVERT JUMPDEST PUSH0 PUSH0 REVERT JUMPDEST PUSH0 PUSH0 REVERT JUMPDEST PUSH32 0x4E487B7100000000000000000000000000000000000000000000000000000000 PUSH0 MSTORE PUSH1 0x41 PUSH1 0x4 MSTORE PUSH1 0x24 PUSH0 REVERT JUMPDEST PUSH2 0x1EE DUP3 PUSH2 0x137 JUMP JUMPDEST DUP2 ADD DUP2 DUP2 LT PUSH8 0xFFFFFFFFFFFFFFFF DUP3 GT OR ISZERO PUSH2 0x20D JUMPI PUSH2 0x20C PUSH2 0x1B8 JUMP JUMPDEST JUMPDEST DUP1 PUSH1 0x40 MSTORE POP POP POP JUMP JUMPDEST PUSH0 PUSH2 0x21F PUSH2 0x19F JUMP JUMPDEST SWAP1 POP PUSH2 0x22B DUP3 DUP3 PUSH2 0x1E5 JUMP JUMPDEST SWAP2 SWAP1 POP JUMP JUMPDEST PUSH0 PUSH8 0xFFFFFFFFFFFFFFFF DUP3 GT ISZERO PUSH2 0x24A JUMPI PUSH2 0x249 PUSH2 0x1B8 JUMP JUMPDEST JUMPDEST PUSH2 0x253 DUP3 PUSH2 0x137 JUMP JUMPDEST SWAP1 POP PUSH1 0x20 DUP2 ADD SWAP1 POP SWAP2 SWAP1 POP JUMP JUMPDEST DUP3 DUP2 DUP4 CALLDATACOPY PUSH0 DUP4 DUP4 ADD MSTORE POP POP POP JUMP JUMPDEST PUSH0 PUSH2 0x280 PUSH2 0x27B DUP5 PUSH2 0x230 JUMP JUMPDEST PUSH2 0x216 JUMP JUMPDEST SWAP1 POP DUP3 DUP2 MSTORE PUSH1 0x20 DUP2 ADD DUP5 DUP5 DUP5 ADD GT ISZERO PUSH2 0x29C JUMPI PUSH2 0x29B PUSH2 0x1B4 JUMP JUMPDEST JUMPDEST PUSH2 0x2A7 DUP5 DUP3 DUP6 PUSH2 0x260 JUMP JUMPDEST POP SWAP4 SWAP3 POP POP POP JUMP JUMPDEST PUSH0 DUP3 PUSH1 0x1F DUP4 ADD SLT PUSH2 0x2C3 JUMPI PUSH2 0x2C2 PUSH2 0x1B0 JUMP JUMPDEST JUMPDEST DUP2 CALLDATALOAD PUSH2 0x2D3 DUP5 DUP3 PUSH1 0x20 DUP7 ADD PUSH2 0x26E JUMP JUMPDEST SWAP2 POP POP SWAP3 SWAP2 POP POP JUMP JUMPDEST PUSH0 PUSH1 0x20 DUP3 DUP5 SUB SLT ISZERO PUSH2 0x2F1 JUMPI PUSH2 0x2F0 PUSH2 0x1A8 JUMP JUMPDEST JUMPDEST PUSH0 DUP3 ADD CALLDATALOAD PUSH8 0xFFFFFFFFFFFFFFFF DUP2 GT ISZERO PUSH2 0x30E JUMPI PUSH2 0x30D PUSH2 0x1AC JUMP JUMPDEST JUMPDEST PUSH2 0x31A DUP5 DUP3 DUP6 ADD PUSH2 0x2AF JUMP JUMPDEST SWAP2 POP POP SWAP3 SWAP2 POP POP JUMP JUMPDEST PUSH32 0x4E487B7100000000000000000000000000000000000000000000000000000000 PUSH0 MSTORE PUSH1 0x22 PUSH1 0x4 MSTORE PUSH1 0x24 PUSH0 REVERT JUMPDEST PUSH0 PUSH1 0x2 DUP3 DIV SWAP1 POP PUSH1 0x1 DUP3 AND DUP1 PUSH2 0x367 JUMPI PUSH1 0x7F DUP3 AND SWAP2 POP JUMPDEST PUSH1 0x20 DUP3 LT DUP2 SUB PUSH2 0x37A JUMPI PUSH2 0x379 PUSH2 0x323 JUMP JUMPDEST JUMPDEST POP SWAP2 SWAP1 POP JUMP JUMPDEST PUSH0 DUP2 SWAP1 POP DUP2 PUSH0 MSTORE PUSH1 0x20 PUSH0 KECCAK256 SWAP1 POP SWAP2 SWAP1 POP JUMP JUMPDEST PUSH0 PUSH1 0x20 PUSH1 0x1F DUP4 ADD DIV SWAP1 POP SWAP2 SWAP1 POP JUMP JUMPDEST PUSH0 DUP3 DUP3 SHL SWAP1 POP SWAP3 SWAP2 POP POP JUMP JUMPDEST PUSH0 PUSH1 0x8 DUP4 MUL PUSH2 0x3DC PUSH32 0xFFFFFFFFFFFFFFFFFFFFFFFFFFFFFFFFFFFFFFFFFFFFFFFFFFFFFFFFFFFFFFFF DUP3 PUSH2 0x3A1 JUMP JUMPDEST PUSH2 0x3E6 DUP7 DUP4 PUSH2 0x3A1 JUMP JUMPDEST SWAP6 POP DUP1 NOT DUP5 AND SWAP4 POP DUP1 DUP7 AND DUP5 OR SWAP3 POP POP POP SWAP4 SWAP3 POP POP POP JUMP JUMPDEST PUSH0 DUP2 SWAP1 POP SWAP2 SWAP1 POP JUMP JUMPDEST PUSH0 DUP2 SWAP1 POP SWAP2 SWAP1 POP JUMP JUMPDEST PUSH0 PUSH2 0x42A PUSH2 0x425 PUSH2 0x420 DUP5 PUSH2 0x3FE JUMP JUMPDEST PUSH2 0x407 JUMP JUMPDEST PUSH2 0x3FE JUMP JUMPDEST SWAP1 POP SWAP2 SWAP1 POP JUMP JUMPDEST PUSH0 DUP2 SWAP1 POP SWAP2 SWAP1 POP JUMP JUMPDEST PUSH2 0x443 DUP4 PUSH2 0x410 JUMP JUMPDEST PUSH2 0x457 PUSH2 0x44F DUP3 PUSH2 0x431 JUMP JUMPDEST DUP5 DUP5 SLOAD PUSH2 0x3AD JUMP JUMPDEST DUP3 SSTORE POP POP POP POP JUMP JUMPDEST PUSH0 PUSH0 SWAP1 POP SWAP1 JUMP JUMPDEST PUSH2 0x46E PUSH2 0x45F JUMP JUMPDEST PUSH2 0x479 DUP2 DUP5 DUP5 PUSH2 0x43A JUMP JUMPDEST POP POP POP JUMP JUMPDEST PUSH0 JUMPDEST DUP3 DUP2 LT ISZERO PUSH2 0x49F JUMPI PUSH2 0x494 PUSH0 DUP3 DUP5 ADD PUSH2 0x466 JUMP JUMPDEST PUSH1 0x1 DUP2 ADD SWAP1 POP PUSH2 0x480 JUMP JUMPDEST POP POP POP JUMP JUMPDEST PUSH1 0x1F DUP3 GT ISZERO PUSH2 0x4F2 JUMPI DUP3 DUP3 GT ISZERO PUSH2 0x4F1 JUMPI PUSH2 0x4BE DUP2 PUSH2 0x380 JUMP JUMPDEST PUSH2 0x4C7 DUP4 PUSH2 0x392 JUMP JUMPDEST PUSH2 0x4D0 DUP6 PUSH2 0x392 JUMP JUMPDEST PUSH1 0x20 DUP7 LT ISZERO PUSH2 0x4DD JUMPI PUSH0 SWAP1 POP JUMPDEST DUP1 DUP4 ADD PUSH2 0x4EC DUP3 DUP5 SUB DUP3 PUSH2 0x47E JUMP JUMPDEST POP POP POP POP JUMPDEST JUMPDEST POP POP POP JUMP JUMPDEST PUSH0 DUP3 DUP3 SHR SWAP1 POP SWAP3 SWAP2 POP POP JUMP JUMPDEST PUSH0 PUSH2 0x512 PUSH0 NOT DUP5 PUSH1 0x8 MUL PUSH2 0x4F7 JUMP JUMPDEST NOT DUP1 DUP4 AND SWAP2 POP POP SWAP3 SWAP2 POP POP JUMP JUMPDEST PUSH0 PUSH2 0x52A DUP4 DUP4 PUSH2 0x503 JUMP JUMPDEST SWAP2 POP DUP3 PUSH1 0x2 MUL DUP3 OR SWAP1 POP SWAP3 SWAP2 POP POP JUMP JUMPDEST PUSH2 0x543 DUP3 PUSH2 0x10F JUMP JUMPDEST PUSH8 0xFFFFFFFFFFFFFFFF DUP2 GT ISZERO PUSH2 0x55C JUMPI PUSH2 0x55B PUSH2 0x1B8 JUMP JUMPDEST JUMPDEST PUSH2 0x566 DUP3 SLOAD PUSH2 0x350 JUMP JUMPDEST PUSH2 0x571 DUP3 DUP3 DUP6 PUSH2 0x4A4 JUMP JUMPDEST PUSH0 PUSH1 0x20 SWAP1 POP PUSH1 0x1F DUP4 GT PUSH1 0x1 DUP2 EQ PUSH2 0x5A2 JUMPI PUSH0 DUP5 ISZERO PUSH2 0x590 JUMPI DUP3 DUP8 ADD MLOAD SWAP1 POP JUMPDEST PUSH2 0x59A DUP6 DUP3 PUSH2 0x51F JUMP JUMPDEST DUP7 SSTORE POP PUSH2 0x601 JUMP JUMPDEST PUSH1 0x1F NOT DUP5 AND PUSH2 0x5B0 DUP7 PUSH2 0x380 JUMP JUMPDEST PUSH0 JUMPDEST DUP3 DUP2 LT ISZERO PUSH2 0x5D7 JUMPI DUP5 DUP10 ADD MLOAD DUP3 SSTORE PUSH1 0x1 DUP3 ADD SWAP2 POP PUSH1 0x20 DUP6 ADD SWAP5 POP PUSH1 0x20 DUP2 ADD SWAP1 POP PUSH2 0x5B2 JUMP JUMPDEST DUP7 DUP4 LT ISZERO PUSH2 0x5F4 JUMPI DUP5 DUP10 ADD MLOAD PUSH2 0x5F0 PUSH1 0x1F DUP10 AND DUP3 PUSH2 0x503 JUMP JUMPDEST DUP4 SSTORE POP JUMPDEST PUSH1 0x1 PUSH1 0x2 DUP9 MUL ADD DUP9 SSTORE POP POP POP JUMPDEST POP POP POP POP POP POP JUMP INVALID LOG2 PUSH5 0x6970667358 0x22 SLT KECCAK256 CALLF 0x9DD4 TLOAD RETF 0xC3 PUSH7 0x47408532A88716 SWAPN 0xB7 SWAP14 EQ 0xB1 0x26 0xC4 0x4D 0xC5 SWAP1 PUSH11 0xA60725C4800C4264736F6C PUSH4 0x43000822 STOP CALLER "
				},
				"gasEstimates": {
					"creation": {
						"codeDepositCost": "319800",
						"executionCost": "infinite",
						"totalCost": "infinite"
					},
					"external": {
						"myString()": "infinite",
						"setMyString(string)": "infinite"
					}
				},
				"methodIdentifiers": {
					"myString()": "492bfa18",
					"setMyString(string)": "82180568"
				}
			},
			"storageLayout": {
				"storage": [
					{
						"astId": 4,
						"contract": "contracts/Strings.sol:Strings",
						"label": "myString",
						"offset": 0,
						"slot": "0",
						"type": "t_string_storage"
					}
				],
				"types": {
					"t_string_storage": {
						"encoding": "bytes",
						"label": "string",
						"numberOfBytes": "32"
					}
				}
			},
			"userdoc": {
				"kind": "user",
				"methods": {},
				"version": 1
			}
		}
	}
}