{
	"contracts/TheBlockchainMessenger.sol": {
		"TheBlockchainMessenger": {
			"abi": [
				{
					"inputs": [],
					"stateMutability": "nonpayable",
					"type": "constructor"
				},
				{
					"inputs": [],
					"name": "changeCounter",
					"outputs": [
						{
							"internalType": "uint256",
							"name": "",
							"type": "uint256"
						}
					],
					"stateMutability": "view",
					"type": "function"
				},
				{
					"inputs": [],
					"name": "owner",
					"outputs": [
						{
							"internalType": "address",
							"name": "",
							"type": "address"
						}
					],
					"stateMutability": "view",
					"type": "function"
				},
				{
					"inputs": [],
					"name": "theMessage",
					"outputs": [
						{
							"internalType": "string",
							"name": "",
							"type": "string"
						}
					],
					"stateMutability": "view",
					"type": "function"
				},
				{
					"inputs": [
						{
							"internalType": "string",
							"name": "_newMessage",
							"type": "string"
						}
					],
					"name": "updateTheMessage",
					"outputs": [],
					"stateMutability": "nonpayable",
					"type": "function"
				}
			],
			"devdoc": {
				"kind": "dev",
				"methods": {},
				"version": 1
			},
			"evm": {
				"assembly": "    /* \"contracts/TheBlockchainMessenger.sol\":26:395  contract TheBlockchainMessenger {... */\n  mstore(0x40, 0x80)\n    /* \"contracts/TheBlockchainMessenger.sol\":159:208  constructor() {... */\n  callvalue\n  dup1\n  iszero\n  tag_1\n  jumpi\n  revert(0x00, 0x00)\ntag_1:\n  pop\n    /* \"contracts/TheBlockchainMessenger.sol\":191:201  msg.sender */\n  caller\n    /* \"contracts/TheBlockchainMessenger.sol\":183:188  owner */\n  0x01\n  0x00\n    /* \"contracts/TheBlockchainMessenger.sol\":183:201  owner = msg.sender */\n  0x0100\n  exp\n  dup2\n  sload\n  dup2\n  0xffffffffffffffffffffffffffffffffffffffff\n  mul\n  not\n  and\n  swap1\n  dup4\n  0xffffffffffffffffffffffffffffffffffffffff\n  and\n  mul\n  or\n  swap1\n  sstore\n  pop\n    /* \"contracts/TheBlockchainMessenger.sol\":26:395  contract TheBlockchainMessenger {... */\n  dataSize(sub_0)\n  dup1\n  dataOffset(sub_0)\n  0x00\n  codecopy\n  0x00\n  return\nstop\n\nsub_0: assembly {\n        /* \"contracts/TheBlockchainMessenger.sol\":26:395  contract TheBlockchainMessenger {... */\n      mstore(0x40, 0x80)\n      callvalue\n      dup1\n      iszero\n      tag_1\n      jumpi\n      revert(0x00, 0x00)\n    tag_1:\n      pop\n      jumpi(tag_2, lt(calldatasize, 0x04))\n      shr(0xe0, calldataload(0x00))\n      dup1\n      0x67e8805f\n      eq\n      tag_3\n      jumpi\n      dup1\n      0x6a394434\n      eq\n      tag_4\n      jumpi\n      dup1\n      0x8da5cb5b\n      eq\n      tag_5\n      jumpi\n      dup1\n      0xaaf4389a\n      eq\n      tag_6\n      jumpi\n    tag_2:\n      revert(0x00, 0x00)\n        /* \"contracts/TheBlockchainMessenger.sol\":127:151  string public theMessage */\n    tag_3:\n      tag_7\n      tag_8\n      jump\t// in\n    tag_7:\n      mload(0x40)\n      tag_9\n      swap2\n      swap1\n      tag_10\n      jump\t// in\n    tag_9:\n      mload(0x40)\n      dup1\n      swap2\n      sub\n      swap1\n      return\n        /* \"contracts/TheBlockchainMessenger.sol\":215:393  function updateTheMessage(string memory _newMessage) public {... */\n    tag_4:\n      tag_11\n      0x04\n      dup1\n      calldatasize\n      sub\n      dup2\n      add\n      swap1\n      tag_12\n      swap2\n      swap1\n      tag_13\n      jump\t// in\n    tag_12:\n      tag_14\n      jump\t// in\n    tag_11:\n      stop\n        /* \"contracts/TheBlockchainMessenger.sol\":99:119  address public owner */\n    tag_5:\n      tag_15\n      tag_16\n      jump\t// in\n    tag_15:\n      mload(0x40)\n      tag_17\n      swap2\n      swap1\n      tag_18\n      jump\t// in\n    tag_17:\n      mload(0x40)\n      dup1\n      swap2\n      sub\n      swap1\n      return\n        /* \"contracts/TheBlockchainMessenger.sol\":66:91  uint public changeCounter */\n    tag_6:\n      tag_19\n      tag_20\n      jump\t// in\n    tag_19:\n      mload(0x40)\n      tag_21\n      swap2\n      swap1\n      tag_22\n      jump\t// in\n    tag_21:\n      mload(0x40)\n      dup1\n      swap2\n      sub\n      swap1\n      return\n        /* \"contracts/TheBlockchainMessenger.sol\":127:151  string public theMessage */\n    tag_8:\n      0x02\n      dup1\n      sload\n      tag_23\n      swap1\n      tag_24\n      jump\t// in\n    tag_23:\n      dup1\n      0x1f\n      add\n      0x20\n      dup1\n      swap2\n      div\n      mul\n      0x20\n      add\n      mload(0x40)\n      swap1\n      dup2\n      add\n      0x40\n      mstore\n      dup1\n      swap3\n      swap2\n      swap1\n      dup2\n      dup2\n      mstore\n      0x20\n      add\n      dup3\n      dup1\n      sload\n      tag_25\n      swap1\n      tag_24\n      jump\t// in\n    tag_25:\n      dup1\n      iszero\n      tag_26\n      jumpi\n      dup1\n      0x1f\n      lt\n      tag_27\n      jumpi\n      0x0100\n      dup1\n      dup4\n      sload\n      div\n      mul\n      dup4\n      mstore\n      swap2\n      0x20\n      add\n      swap2\n      jump(tag_26)\n    tag_27:\n      dup3\n      add\n      swap2\n      swap1\n      0x00\n      mstore\n      keccak256(0x00, 0x20)\n      swap1\n    tag_28:\n      dup2\n      sload\n      dup2\n      mstore\n      swap1\n      0x01\n      add\n      swap1\n      0x20\n      add\n      dup1\n      dup4\n      gt\n      tag_28\n      jumpi\n      dup3\n      swap1\n      sub\n      0x1f\n      and\n      dup3\n      add\n      swap2\n    tag_26:\n      pop\n      pop\n      pop\n      pop\n      pop\n      dup2\n      jump\t// out\n        /* \"contracts/TheBlockchainMessenger.sol\":215:393  function updateTheMessage(string memory _newMessage) public {... */\n    tag_14:\n        /* \"contracts/TheBlockchainMessenger.sol\":302:307  owner */\n      0x01\n      0x00\n      swap1\n      sload\n      swap1\n      0x0100\n      exp\n      swap1\n      div\n      0xffffffffffffffffffffffffffffffffffffffff\n      and\n        /* \"contracts/TheBlockchainMessenger.sol\":288:307  msg.sender == owner */\n      0xffffffffffffffffffffffffffffffffffffffff\n      and\n        /* \"contracts/TheBlockchainMessenger.sol\":288:298  msg.sender */\n      caller\n        /* \"contracts/TheBlockchainMessenger.sol\":288:307  msg.sender == owner */\n      0xffffffffffffffffffffffffffffffffffffffff\n      and\n      sub\n        /* \"contracts/TheBlockchainMessenger.sol\":285:387  if(msg.sender == owner) {... */\n      tag_30\n      jumpi\n        /* \"contracts/TheBlockchainMessenger.sol\":336:347  _newMessage */\n      dup1\n        /* \"contracts/TheBlockchainMessenger.sol\":323:333  theMessage */\n      0x02\n        /* \"contracts/TheBlockchainMessenger.sol\":323:347  theMessage = _newMessage */\n      swap1\n      dup2\n      tag_31\n      swap2\n      swap1\n      tag_32\n      jump\t// in\n    tag_31:\n      pop\n        /* \"contracts/TheBlockchainMessenger.sol\":361:374  changeCounter */\n      0x00\n      0x00\n        /* \"contracts/TheBlockchainMessenger.sol\":361:376  changeCounter++ */\n      dup2\n      sload\n      dup1\n      swap3\n      swap2\n      swap1\n      tag_33\n      swap1\n      tag_34\n      jump\t// in\n    tag_33:\n      swap2\n      swap1\n      pop\n      sstore\n      pop\n        /* \"contracts/TheBlockchainMessenger.sol\":285:387  if(msg.sender == owner) {... */\n    tag_30:\n        /* \"contracts/TheBlockchainMessenger.sol\":215:393  function updateTheMessage(string memory _newMessage) public {... */\n      pop\n      jump\t// out\n        /* \"contracts/TheBlockchainMessenger.sol\":99:119  address public owner */\n    tag_16:\n      0x01\n      0x00\n      swap1\n      sload\n      swap1\n      0x0100\n      exp\n      swap1\n      div\n      0xffffffffffffffffffffffffffffffffffffffff\n      and\n      dup2\n      jump\t// out\n        /* \"contracts/TheBlockchainMessenger.sol\":66:91  uint public changeCounter */\n    tag_20:\n      sload(0x00)\n      dup2\n      jump\t// out\n        /* \"#utility.yul\":7:106   */\n    tag_35:\n        /* \"#utility.yul\":59:65   */\n      0x00\n        /* \"#utility.yul\":93:98   */\n      dup2\n        /* \"#utility.yul\":87:99   */\n      mload\n        /* \"#utility.yul\":77:99   */\n      swap1\n      pop\n        /* \"#utility.yul\":7:106   */\n      swap2\n      swap1\n      pop\n      jump\t// out\n        /* \"#utility.yul\":112:281   */\n    tag_36:\n        /* \"#utility.yul\":196:207   */\n      0x00\n        /* \"#utility.yul\":230:236   */\n      dup3\n        /* \"#utility.yul\":225:228   */\n      dup3\n        /* \"#utility.yul\":218:237   */\n      mstore\n        /* \"#utility.yul\":270:274   */\n      0x20\n        /* \"#utility.yul\":265:268   */\n      dup3\n        /* \"#utility.yul\":261:275   */\n      add\n        /* \"#utility.yul\":246:275   */\n      swap1\n      pop\n        /* \"#utility.yul\":112:281   */\n      swap3\n      swap2\n      pop\n      pop\n      jump\t// out\n        /* \"#utility.yul\":287:426   */\n    tag_37:\n        /* \"#utility.yul\":376:382   */\n      dup3\n        /* \"#utility.yul\":371:374   */\n      dup2\n        /* \"#utility.yul\":366:369   */\n      dup4\n        /* \"#utility.yul\":360:383   */\n      mcopy\n        /* \"#utility.yul\":417:418   */\n      0x00\n        /* \"#utility.yul\":408:414   */\n      dup4\n        /* \"#utility.yul\":403:406   */\n      dup4\n        /* \"#utility.yul\":399:415   */\n      add\n        /* \"#utility.yul\":392:419   */\n      mstore\n        /* \"#utility.yul\":287:426   */\n      pop\n      pop\n      pop\n      jump\t// out\n        /* \"#utility.yul\":432:534   */\n    tag_38:\n        /* \"#utility.yul\":473:479   */\n      0x00\n        /* \"#utility.yul\":524:526   */\n      0x1f\n        /* \"#utility.yul\":520:527   */\n      not\n        /* \"#utility.yul\":515:517   */\n      0x1f\n        /* \"#utility.yul\":508:513   */\n      dup4\n        /* \"#utility.yul\":504:518   */\n      add\n        /* \"#utility.yul\":500:528   */\n      and\n        /* \"#utility.yul\":490:528   */\n      swap1\n      pop\n        /* \"#utility.yul\":432:534   */\n      swap2\n      swap1\n      pop\n      jump\t// out\n        /* \"#utility.yul\":540:917   */\n    tag_39:\n        /* \"#utility.yul\":628:631   */\n      0x00\n        /* \"#utility.yul\":656:695   */\n      tag_80\n        /* \"#utility.yul\":689:694   */\n      dup3\n        /* \"#utility.yul\":656:695   */\n      tag_35\n      jump\t// in\n    tag_80:\n        /* \"#utility.yul\":711:782   */\n      tag_81\n        /* \"#utility.yul\":775:781   */\n      dup2\n        /* \"#utility.yul\":770:773   */\n      dup6\n        /* \"#utility.yul\":711:782   */\n      tag_36\n      jump\t// in\n    tag_81:\n        /* \"#utility.yul\":704:782   */\n      swap4\n      pop\n        /* \"#utility.yul\":791:856   */\n      tag_82\n        /* \"#utility.yul\":849:855   */\n      dup2\n        /* \"#utility.yul\":844:847   */\n      dup6\n        /* \"#utility.yul\":837:841   */\n      0x20\n        /* \"#utility.yul\":830:835   */\n      dup7\n        /* \"#utility.yul\":826:842   */\n      add\n        /* \"#utility.yul\":791:856   */\n      tag_37\n      jump\t// in\n    tag_82:\n        /* \"#utility.yul\":881:910   */\n      tag_83\n        /* \"#utility.yul\":903:909   */\n      dup2\n        /* \"#utility.yul\":881:910   */\n      tag_38\n      jump\t// in\n    tag_83:\n        /* \"#utility.yul\":876:879   */\n      dup5\n        /* \"#utility.yul\":872:911   */\n      add\n        /* \"#utility.yul\":865:911   */\n      swap2\n      pop\n        /* \"#utility.yul\":632:917   */\n      pop\n        /* \"#utility.yul\":540:917   */\n      swap3\n      swap2\n      pop\n      pop\n      jump\t// out\n        /* \"#utility.yul\":923:1236   */\n    tag_10:\n        /* \"#utility.yul\":1036:1040   */\n      0x00\n        /* \"#utility.yul\":1074:1076   */\n      0x20\n        /* \"#utility.yul\":1063:1072   */\n      dup3\n        /* \"#utility.yul\":1059:1077   */\n      add\n        /* \"#utility.yul\":1051:1077   */\n      swap1\n      pop\n        /* \"#utility.yul\":1123:1132   */\n      dup2\n        /* \"#utility.yul\":1117:1121   */\n      dup2\n        /* \"#utility.yul\":1113:1133   */\n      sub\n        /* \"#utility.yul\":1109:1110   */\n      0x00\n        /* \"#utility.yul\":1098:1107   */\n      dup4\n        /* \"#utility.yul\":1094:1111   */\n      add\n        /* \"#utility.yul\":1087:1134   */\n      mstore\n        /* \"#utility.yul\":1151:1229   */\n      tag_85\n        /* \"#utility.yul\":1224:1228   */\n      dup2\n        /* \"#utility.yul\":1215:1221   */\n      dup5\n        /* \"#utility.yul\":1151:1229   */\n      tag_39\n      jump\t// in\n    tag_85:\n        /* \"#utility.yul\":1143:1229   */\n      swap1\n      pop\n        /* \"#utility.yul\":923:1236   */\n      swap3\n      swap2\n      pop\n      pop\n      jump\t// out\n        /* \"#utility.yul\":1242:1317   */\n    tag_40:\n        /* \"#utility.yul\":1275:1281   */\n      0x00\n        /* \"#utility.yul\":1308:1310   */\n      0x40\n        /* \"#utility.yul\":1302:1311   */\n      mload\n        /* \"#utility.yul\":1292:1311   */\n      swap1\n      pop\n        /* \"#utility.yul\":1242:1317   */\n      swap1\n      jump\t// out\n        /* \"#utility.yul\":1323:1440   */\n    tag_41:\n        /* \"#utility.yul\":1432:1433   */\n      0x00\n        /* \"#utility.yul\":1429:1430   */\n      0x00\n        /* \"#utility.yul\":1422:1434   */\n      revert\n        /* \"#utility.yul\":1446:1563   */\n    tag_42:\n        /* \"#utility.yul\":1555:1556   */\n      0x00\n        /* \"#utility.yul\":1552:1553   */\n      0x00\n        /* \"#utility.yul\":1545:1557   */\n      revert\n        /* \"#utility.yul\":1569:1686   */\n    tag_43:\n        /* \"#utility.yul\":1678:1679   */\n      0x00\n        /* \"#utility.yul\":1675:1676   */\n      0x00\n        /* \"#utility.yul\":1668:1680   */\n      revert\n        /* \"#utility.yul\":1692:1809   */\n    tag_44:\n        /* \"#utility.yul\":1801:1802   */\n      0x00\n        /* \"#utility.yul\":1798:1799   */\n      0x00\n        /* \"#utility.yul\":1791:1803   */\n      revert\n        /* \"#utility.yul\":1815:1995   */\n    tag_45:\n        /* \"#utility.yul\":1863:1940   */\n      0x4e487b7100000000000000000000000000000000000000000000000000000000\n        /* \"#utility.yul\":1860:1861   */\n      0x00\n        /* \"#utility.yul\":1853:1941   */\n      mstore\n        /* \"#utility.yul\":1960:1964   */\n      0x41\n        /* \"#utility.yul\":1957:1958   */\n      0x04\n        /* \"#utility.yul\":1950:1965   */\n      mstore\n        /* \"#utility.yul\":1984:1988   */\n      0x24\n        /* \"#utility.yul\":1981:1982   */\n      0x00\n        /* \"#utility.yul\":1974:1989   */\n      revert\n        /* \"#utility.yul\":2001:2282   */\n    tag_46:\n        /* \"#utility.yul\":2084:2111   */\n      tag_93\n        /* \"#utility.yul\":2106:2110   */\n      dup3\n        /* \"#utility.yul\":2084:2111   */\n      tag_38\n      jump\t// in\n    tag_93:\n        /* \"#utility.yul\":2076:2082   */\n      dup2\n        /* \"#utility.yul\":2072:2112   */\n      add\n        /* \"#utility.yul\":2214:2220   */\n      dup2\n        /* \"#utility.yul\":2202:2212   */\n      dup2\n        /* \"#utility.yul\":2199:2221   */\n      lt\n        /* \"#utility.yul\":2178:2196   */\n      0xffffffffffffffff\n        /* \"#utility.yul\":2166:2176   */\n      dup3\n        /* \"#utility.yul\":2163:2197   */\n      gt\n        /* \"#utility.yul\":2160:2222   */\n      or\n        /* \"#utility.yul\":2157:2245   */\n      iszero\n      tag_94\n      jumpi\n        /* \"#utility.yul\":2225:2243   */\n      tag_95\n      tag_45\n      jump\t// in\n    tag_95:\n        /* \"#utility.yul\":2157:2245   */\n    tag_94:\n        /* \"#utility.yul\":2265:2275   */\n      dup1\n        /* \"#utility.yul\":2261:2263   */\n      0x40\n        /* \"#utility.yul\":2254:2276   */\n      mstore\n        /* \"#utility.yul\":2044:2282   */\n      pop\n        /* \"#utility.yul\":2001:2282   */\n      pop\n      pop\n      jump\t// out\n        /* \"#utility.yul\":2288:2417   */\n    tag_47:\n        /* \"#utility.yul\":2322:2328   */\n      0x00\n        /* \"#utility.yul\":2349:2369   */\n      tag_97\n      tag_40\n      jump\t// in\n    tag_97:\n        /* \"#utility.yul\":2339:2369   */\n      swap1\n      pop\n        /* \"#utility.yul\":2378:2411   */\n      tag_98\n        /* \"#utility.yul\":2406:2410   */\n      dup3\n        /* \"#utility.yul\":2398:2404   */\n      dup3\n        /* \"#utility.yul\":2378:2411   */\n      tag_46\n      jump\t// in\n    tag_98:\n        /* \"#utility.yul\":2288:2417   */\n      swap2\n      swap1\n      pop\n      jump\t// out\n        /* \"#utility.yul\":2423:2731   */\n    tag_48:\n        /* \"#utility.yul\":2485:2489   */\n      0x00\n        /* \"#utility.yul\":2575:2593   */\n      0xffffffffffffffff\n        /* \"#utility.yul\":2567:2573   */\n      dup3\n        /* \"#utility.yul\":2564:2594   */\n      gt\n        /* \"#utility.yul\":2561:2617   */\n      iszero\n      tag_100\n      jumpi\n        /* \"#utility.yul\":2597:2615   */\n      tag_101\n      tag_45\n      jump\t// in\n    tag_101:\n        /* \"#utility.yul\":2561:2617   */\n    tag_100:\n        /* \"#utility.yul\":2635:2664   */\n      tag_102\n        /* \"#utility.yul\":2657:2663   */\n      dup3\n        /* \"#utility.yul\":2635:2664   */\n      tag_38\n      jump\t// in\n    tag_102:\n        /* \"#utility.yul\":2627:2664   */\n      swap1\n      pop\n        /* \"#utility.yul\":2719:2723   */\n      0x20\n        /* \"#utility.yul\":2713:2717   */\n      dup2\n        /* \"#utility.yul\":2709:2724   */\n      add\n        /* \"#utility.yul\":2701:2724   */\n      swap1\n      pop\n        /* \"#utility.yul\":2423:2731   */\n      swap2\n      swap1\n      pop\n      jump\t// out\n        /* \"#utility.yul\":2737:2885   */\n    tag_49:\n        /* \"#utility.yul\":2835:2841   */\n      dup3\n        /* \"#utility.yul\":2830:2833   */\n      dup2\n        /* \"#utility.yul\":2825:2828   */\n      dup4\n        /* \"#utility.yul\":2812:2842   */\n      calldatacopy\n        /* \"#utility.yul\":2876:2877   */\n      0x00\n        /* \"#utility.yul\":2867:2873   */\n      dup4\n        /* \"#utility.yul\":2862:2865   */\n      dup4\n        /* \"#utility.yul\":2858:2874   */\n      add\n        /* \"#utility.yul\":2851:2878   */\n      mstore\n        /* \"#utility.yul\":2737:2885   */\n      pop\n      pop\n      pop\n      jump\t// out\n        /* \"#utility.yul\":2891:3316   */\n    tag_50:\n        /* \"#utility.yul\":2969:2974   */\n      0x00\n        /* \"#utility.yul\":2994:3060   */\n      tag_105\n        /* \"#utility.yul\":3010:3059   */\n      tag_106\n        /* \"#utility.yul\":3052:3058   */\n      dup5\n        /* \"#utility.yul\":3010:3059   */\n      tag_48\n      jump\t// in\n    tag_106:\n        /* \"#utility.yul\":2994:3060   */\n      tag_47\n      jump\t// in\n    tag_105:\n        /* \"#utility.yul\":2985:3060   */\n      swap1\n      pop\n        /* \"#utility.yul\":3083:3089   */\n      dup3\n        /* \"#utility.yul\":3076:3081   */\n      dup2\n        /* \"#utility.yul\":3069:3090   */\n      mstore\n        /* \"#utility.yul\":3121:3125   */\n      0x20\n        /* \"#utility.yul\":3114:3119   */\n      dup2\n        /* \"#utility.yul\":3110:3126   */\n      add\n        /* \"#utility.yul\":3159:3162   */\n      dup5\n        /* \"#utility.yul\":3150:3156   */\n      dup5\n        /* \"#utility.yul\":3145:3148   */\n      dup5\n        /* \"#utility.yul\":3141:3157   */\n      add\n        /* \"#utility.yul\":3138:3163   */\n      gt\n        /* \"#utility.yul\":3135:3247   */\n      iszero\n      tag_107\n      jumpi\n        /* \"#utility.yul\":3166:3245   */\n      tag_108\n      tag_44\n      jump\t// in\n    tag_108:\n        /* \"#utility.yul\":3135:3247   */\n    tag_107:\n        /* \"#utility.yul\":3256:3310   */\n      tag_109\n        /* \"#utility.yul\":3303:3309   */\n      dup5\n        /* \"#utility.yul\":3298:3301   */\n      dup3\n        /* \"#utility.yul\":3293:3296   */\n      dup6\n        /* \"#utility.yul\":3256:3310   */\n      tag_49\n      jump\t// in\n    tag_109:\n        /* \"#utility.yul\":2975:3316   */\n      pop\n        /* \"#utility.yul\":2891:3316   */\n      swap4\n      swap3\n      pop\n      pop\n      pop\n      jump\t// out\n        /* \"#utility.yul\":3336:3676   */\n    tag_51:\n        /* \"#utility.yul\":3392:3397   */\n      0x00\n        /* \"#utility.yul\":3441:3444   */\n      dup3\n        /* \"#utility.yul\":3434:3438   */\n      0x1f\n        /* \"#utility.yul\":3426:3432   */\n      dup4\n        /* \"#utility.yul\":3422:3439   */\n      add\n        /* \"#utility.yul\":3418:3445   */\n      slt\n        /* \"#utility.yul\":3408:3530   */\n      tag_111\n      jumpi\n        /* \"#utility.yul\":3449:3528   */\n      tag_112\n      tag_43\n      jump\t// in\n    tag_112:\n        /* \"#utility.yul\":3408:3530   */\n    tag_111:\n        /* \"#utility.yul\":3566:3572   */\n      dup2\n        /* \"#utility.yul\":3553:3573   */\n      calldataload\n        /* \"#utility.yul\":3591:3670   */\n      tag_113\n        /* \"#utility.yul\":3666:3669   */\n      dup5\n        /* \"#utility.yul\":3658:3664   */\n      dup3\n        /* \"#utility.yul\":3651:3655   */\n      0x20\n        /* \"#utility.yul\":3643:3649   */\n      dup7\n        /* \"#utility.yul\":3639:3656   */\n      add\n        /* \"#utility.yul\":3591:3670   */\n      tag_50\n      jump\t// in\n    tag_113:\n        /* \"#utility.yul\":3582:3670   */\n      swap2\n      pop\n        /* \"#utility.yul\":3398:3676   */\n      pop\n        /* \"#utility.yul\":3336:3676   */\n      swap3\n      swap2\n      pop\n      pop\n      jump\t// out\n        /* \"#utility.yul\":3682:4191   */\n    tag_13:\n        /* \"#utility.yul\":3751:3757   */\n      0x00\n        /* \"#utility.yul\":3800:3802   */\n      0x20\n        /* \"#utility.yul\":3788:3797   */\n      dup3\n        /* \"#utility.yul\":3779:3786   */\n      dup5\n        /* \"#utility.yul\":3775:3798   */\n      sub\n        /* \"#utility.yul\":3771:3803   */\n      slt\n        /* \"#utility.yul\":3768:3887   */\n      iszero\n      tag_115\n      jumpi\n        /* \"#utility.yul\":3806:3885   */\n      tag_116\n      tag_41\n      jump\t// in\n    tag_116:\n        /* \"#utility.yul\":3768:3887   */\n    tag_115:\n        /* \"#utility.yul\":3954:3955   */\n      0x00\n        /* \"#utility.yul\":3943:3952   */\n      dup3\n        /* \"#utility.yul\":3939:3956   */\n      add\n        /* \"#utility.yul\":3926:3957   */\n      calldataload\n        /* \"#utility.yul\":3984:4002   */\n      0xffffffffffffffff\n        /* \"#utility.yul\":3976:3982   */\n      dup2\n        /* \"#utility.yul\":3973:4003   */\n      gt\n        /* \"#utility.yul\":3970:4087   */\n      iszero\n      tag_117\n      jumpi\n        /* \"#utility.yul\":4006:4085   */\n      tag_118\n      tag_42\n      jump\t// in\n    tag_118:\n        /* \"#utility.yul\":3970:4087   */\n    tag_117:\n        /* \"#utility.yul\":4111:4174   */\n      tag_119\n        /* \"#utility.yul\":4166:4173   */\n      dup5\n        /* \"#utility.yul\":4157:4163   */\n      dup3\n        /* \"#utility.yul\":4146:4155   */\n      dup6\n        /* \"#utility.yul\":4142:4164   */\n      add\n        /* \"#utility.yul\":4111:4174   */\n      tag_51\n      jump\t// in\n    tag_119:\n        /* \"#utility.yul\":4101:4174   */\n      swap2\n      pop\n        /* \"#utility.yul\":3897:4184   */\n      pop\n        /* \"#utility.yul\":3682:4191   */\n      swap3\n      swap2\n      pop\n      pop\n      jump\t// out\n        /* \"#utility.yul\":4197:4323   */\n    tag_52:\n        /* \"#utility.yul\":4234:4241   */\n      0x00\n        /* \"#utility.yul\":4274:4316   */\n      0xffffffffffffffffffffffffffffffffffffffff\n        /* \"#utility.yul\":4267:4272   */\n      dup3\n        /* \"#utility.yul\":4263:4317   */\n      and\n        /* \"#utility.yul\":4252:4317   */\n      swap1\n      pop\n        /* \"#utility.yul\":4197:4323   */\n      swap2\n      swap1\n      pop\n      jump\t// out\n        /* \"#utility.yul\":4329:4425   */\n    tag_53:\n        /* \"#utility.yul\":4366:4373   */\n      0x00\n        /* \"#utility.yul\":4395:4419   */\n      tag_122\n        /* \"#utility.yul\":4413:4418   */\n      dup3\n        /* \"#utility.yul\":4395:4419   */\n      tag_52\n      jump\t// in\n    tag_122:\n        /* \"#utility.yul\":4384:4419   */\n      swap1\n      pop\n        /* \"#utility.yul\":4329:4425   */\n      swap2\n      swap1\n      pop\n      jump\t// out\n        /* \"#utility.yul\":4431:4549   */\n    tag_54:\n        /* \"#utility.yul\":4518:4542   */\n      tag_124\n        /* \"#utility.yul\":4536:4541   */\n      dup2\n        /* \"#utility.yul\":4518:4542   */\n      tag_53\n      jump\t// in\n    tag_124:\n        /* \"#utility.yul\":4513:4516   */\n      dup3\n        /* \"#utility.yul\":4506:4543   */\n      mstore\n        /* \"#utility.yul\":4431:4549   */\n      pop\n      pop\n      jump\t// out\n        /* \"#utility.yul\":4555:4777   */\n    tag_18:\n        /* \"#utility.yul\":4648:4652   */\n      0x00\n        /* \"#utility.yul\":4686:4688   */\n      0x20\n        /* \"#utility.yul\":4675:4684   */\n      dup3\n        /* \"#utility.yul\":4671:4689   */\n      add\n        /* \"#utility.yul\":4663:4689   */\n      swap1\n      pop\n        /* \"#utility.yul\":4699:4770   */\n      tag_126\n        /* \"#utility.yul\":4767:4768   */\n      0x00\n        /* \"#utility.yul\":4756:4765   */\n      dup4\n        /* \"#utility.yul\":4752:4769   */\n      add\n        /* \"#utility.yul\":4743:4749   */\n      dup5\n        /* \"#utility.yul\":4699:4770   */\n      tag_54\n      jump\t// in\n    tag_126:\n        /* \"#utility.yul\":4555:4777   */\n      swap3\n      swap2\n      pop\n      pop\n      jump\t// out\n        /* \"#utility.yul\":4783:4860   */\n    tag_55:\n        /* \"#utility.yul\":4820:4827   */\n      0x00\n        /* \"#utility.yul\":4849:4854   */\n      dup2\n        /* \"#utility.yul\":4838:4854   */\n      swap1\n      pop\n        /* \"#utility.yul\":4783:4860   */\n      swap2\n      swap1\n      pop\n      jump\t// out\n        /* \"#utility.yul\":4866:4984   */\n    tag_56:\n        /* \"#utility.yul\":4953:4977   */\n      tag_129\n        /* \"#utility.yul\":4971:4976   */\n      dup2\n        /* \"#utility.yul\":4953:4977   */\n      tag_55\n      jump\t// in\n    tag_129:\n        /* \"#utility.yul\":4948:4951   */\n      dup3\n        /* \"#utility.yul\":4941:4978   */\n      mstore\n        /* \"#utility.yul\":4866:4984   */\n      pop\n      pop\n      jump\t// out\n        /* \"#utility.yul\":4990:5212   */\n    tag_22:\n        /* \"#utility.yul\":5083:5087   */\n      0x00\n        /* \"#utility.yul\":5121:5123   */\n      0x20\n        /* \"#utility.yul\":5110:5119   */\n      dup3\n        /* \"#utility.yul\":5106:5124   */\n      add\n        /* \"#utility.yul\":5098:5124   */\n      swap1\n      pop\n        /* \"#utility.yul\":5134:5205   */\n      tag_131\n        /* \"#utility.yul\":5202:5203   */\n      0x00\n        /* \"#utility.yul\":5191:5200   */\n      dup4\n        /* \"#utility.yul\":5187:5204   */\n      add\n        /* \"#utility.yul\":5178:5184   */\n      dup5\n        /* \"#utility.yul\":5134:5205   */\n      tag_56\n      jump\t// in\n    tag_131:\n        /* \"#utility.yul\":4990:5212   */\n      swap3\n      swap2\n      pop\n      pop\n      jump\t// out\n        /* \"#utility.yul\":5218:5398   */\n    tag_57:\n        /* \"#utility.yul\":5266:5343   */\n      0x4e487b7100000000000000000000000000000000000000000000000000000000\n        /* \"#utility.yul\":5263:5264   */\n      0x00\n        /* \"#utility.yul\":5256:5344   */\n      mstore\n        /* \"#utility.yul\":5363:5367   */\n      0x22\n        /* \"#utility.yul\":5360:5361   */\n      0x04\n        /* \"#utility.yul\":5353:5368   */\n      mstore\n        /* \"#utility.yul\":5387:5391   */\n      0x24\n        /* \"#utility.yul\":5384:5385   */\n      0x00\n        /* \"#utility.yul\":5377:5392   */\n      revert\n        /* \"#utility.yul\":5404:5724   */\n    tag_24:\n        /* \"#utility.yul\":5448:5454   */\n      0x00\n        /* \"#utility.yul\":5485:5486   */\n      0x02\n        /* \"#utility.yul\":5479:5483   */\n      dup3\n        /* \"#utility.yul\":5475:5487   */\n      div\n        /* \"#utility.yul\":5465:5487   */\n      swap1\n      pop\n        /* \"#utility.yul\":5532:5533   */\n      0x01\n        /* \"#utility.yul\":5526:5530   */\n      dup3\n        /* \"#utility.yul\":5522:5534   */\n      and\n        /* \"#utility.yul\":5553:5571   */\n      dup1\n        /* \"#utility.yul\":5543:5624   */\n      tag_134\n      jumpi\n        /* \"#utility.yul\":5609:5613   */\n      0x7f\n        /* \"#utility.yul\":5601:5607   */\n      dup3\n        /* \"#utility.yul\":5597:5614   */\n      and\n        /* \"#utility.yul\":5587:5614   */\n      swap2\n      pop\n        /* \"#utility.yul\":5543:5624   */\n    tag_134:\n        /* \"#utility.yul\":5671:5673   */\n      0x20\n        /* \"#utility.yul\":5663:5669   */\n      dup3\n        /* \"#utility.yul\":5660:5674   */\n      lt\n        /* \"#utility.yul\":5640:5658   */\n      dup2\n        /* \"#utility.yul\":5637:5675   */\n      sub\n        /* \"#utility.yul\":5634:5718   */\n      tag_135\n      jumpi\n        /* \"#utility.yul\":5690:5708   */\n      tag_136\n      tag_57\n      jump\t// in\n    tag_136:\n        /* \"#utility.yul\":5634:5718   */\n    tag_135:\n        /* \"#utility.yul\":5455:5724   */\n      pop\n        /* \"#utility.yul\":5404:5724   */\n      swap2\n      swap1\n      pop\n      jump\t// out\n        /* \"#utility.yul\":5730:5871   */\n    tag_58:\n        /* \"#utility.yul\":5779:5783   */\n      0x00\n        /* \"#utility.yul\":5802:5805   */\n      dup2\n        /* \"#utility.yul\":5794:5805   */\n      swap1\n      pop\n        /* \"#utility.yul\":5825:5828   */\n      dup2\n        /* \"#utility.yul\":5822:5823   */\n      0x00\n        /* \"#utility.yul\":5815:5829   */\n      mstore\n        /* \"#utility.yul\":5859:5863   */\n      0x20\n        /* \"#utility.yul\":5856:5857   */\n      0x00\n        /* \"#utility.yul\":5846:5864   */\n      keccak256\n        /* \"#utility.yul\":5838:5864   */\n      swap1\n      pop\n        /* \"#utility.yul\":5730:5871   */\n      swap2\n      swap1\n      pop\n      jump\t// out\n        /* \"#utility.yul\":5877:5970   */\n    tag_59:\n        /* \"#utility.yul\":5914:5920   */\n      0x00\n        /* \"#utility.yul\":5961:5963   */\n      0x20\n        /* \"#utility.yul\":5956:5958   */\n      0x1f\n        /* \"#utility.yul\":5949:5954   */\n      dup4\n        /* \"#utility.yul\":5945:5959   */\n      add\n        /* \"#utility.yul\":5941:5964   */\n      div\n        /* \"#utility.yul\":5931:5964   */\n      swap1\n      pop\n        /* \"#utility.yul\":5877:5970   */\n      swap2\n      swap1\n      pop\n      jump\t// out\n        /* \"#utility.yul\":5976:6083   */\n    tag_60:\n        /* \"#utility.yul\":6020:6028   */\n      0x00\n        /* \"#utility.yul\":6070:6075   */\n      dup3\n        /* \"#utility.yul\":6064:6068   */\n      dup3\n        /* \"#utility.yul\":6060:6076   */\n      shl\n        /* \"#utility.yul\":6039:6076   */\n      swap1\n      pop\n        /* \"#utility.yul\":5976:6083   */\n      swap3\n      swap2\n      pop\n      pop\n      jump\t// out\n        /* \"#utility.yul\":6089:6482   */\n    tag_61:\n        /* \"#utility.yul\":6158:6164   */\n      0x00\n        /* \"#utility.yul\":6208:6209   */\n      0x08\n        /* \"#utility.yul\":6196:6206   */\n      dup4\n        /* \"#utility.yul\":6192:6210   */\n      mul\n        /* \"#utility.yul\":6231:6328   */\n      tag_141\n        /* \"#utility.yul\":6261:6327   */\n      0xffffffffffffffffffffffffffffffffffffffffffffffffffffffffffffffff\n        /* \"#utility.yul\":6250:6259   */\n      dup3\n        /* \"#utility.yul\":6231:6328   */\n      tag_60\n      jump\t// in\n    tag_141:\n        /* \"#utility.yul\":6349:6388   */\n      tag_142\n        /* \"#utility.yul\":6379:6387   */\n      dup7\n        /* \"#utility.yul\":6368:6377   */\n      dup4\n        /* \"#utility.yul\":6349:6388   */\n      tag_60\n      jump\t// in\n    tag_142:\n        /* \"#utility.yul\":6337:6388   */\n      swap6\n      pop\n        /* \"#utility.yul\":6421:6425   */\n      dup1\n        /* \"#utility.yul\":6417:6426   */\n      not\n        /* \"#utility.yul\":6410:6415   */\n      dup5\n        /* \"#utility.yul\":6406:6427   */\n      and\n        /* \"#utility.yul\":6397:6427   */\n      swap4\n      pop\n        /* \"#utility.yul\":6470:6474   */\n      dup1\n        /* \"#utility.yul\":6460:6468   */\n      dup7\n        /* \"#utility.yul\":6456:6475   */\n      and\n        /* \"#utility.yul\":6449:6454   */\n      dup5\n        /* \"#utility.yul\":6446:6476   */\n      or\n        /* \"#utility.yul\":6436:6476   */\n      swap3\n      pop\n        /* \"#utility.yul\":6165:6482   */\n      pop\n      pop\n        /* \"#utility.yul\":6089:6482   */\n      swap4\n      swap3\n      pop\n      pop\n      pop\n      jump\t// out\n        /* \"#utility.yul\":6488:6548   */\n    tag_62:\n        /* \"#utility.yul\":6516:6519   */\n      0x00\n        /* \"#utility.yul\":6537:6542   */\n      dup2\n        /* \"#utility.yul\":6530:6542   */\n      swap1\n      pop\n        /* \"#utility.yul\":6488:6548   */\n      swap2\n      swap1\n      pop\n      jump\t// out\n        /* \"#utility.yul\":6554:6696   */\n    tag_63:\n        /* \"#utility.yul\":6604:6613   */\n      0x00\n        /* \"#utility.yul\":6637:6690   */\n      tag_145\n        /* \"#utility.yul\":6655:6689   */\n      tag_146\n        /* \"#utility.yul\":6664:6688   */\n      tag_147\n        /* \"#utility.yul\":6682:6687   */\n      dup5\n        /* \"#utility.yul\":6664:6688   */\n      tag_55\n      jump\t// in\n    tag_147:\n        /* \"#utility.yul\":6655:6689   */\n      tag_62\n      jump\t// in\n    tag_146:\n        /* \"#utility.yul\":6637:6690   */\n      tag_55\n      jump\t// in\n    tag_145:\n        /* \"#utility.yul\":6624:6690   */\n      swap1\n      pop\n        /* \"#utility.yul\":6554:6696   */\n      swap2\n      swap1\n      pop\n      jump\t// out\n        /* \"#utility.yul\":6702:6777   */\n    tag_64:\n        /* \"#utility.yul\":6745:6748   */\n      0x00\n        /* \"#utility.yul\":6766:6771   */\n      dup2\n        /* \"#utility.yul\":6759:6771   */\n      swap1\n      pop\n        /* \"#utility.yul\":6702:6777   */\n      swap2\n      swap1\n      pop\n      jump\t// out\n        /* \"#utility.yul\":6783:7052   */\n    tag_65:\n        /* \"#utility.yul\":6893:6932   */\n      tag_150\n        /* \"#utility.yul\":6924:6931   */\n      dup4\n        /* \"#utility.yul\":6893:6932   */\n      tag_63\n      jump\t// in\n    tag_150:\n        /* \"#utility.yul\":6954:7045   */\n      tag_151\n        /* \"#utility.yul\":7003:7044   */\n      tag_152\n        /* \"#utility.yul\":7027:7043   */\n      dup3\n        /* \"#utility.yul\":7003:7044   */\n      tag_64\n      jump\t// in\n    tag_152:\n        /* \"#utility.yul\":6995:7001   */\n      dup5\n        /* \"#utility.yul\":6988:6992   */\n      dup5\n        /* \"#utility.yul\":6982:6993   */\n      sload\n        /* \"#utility.yul\":6954:7045   */\n      tag_61\n      jump\t// in\n    tag_151:\n        /* \"#utility.yul\":6948:6952   */\n      dup3\n        /* \"#utility.yul\":6941:7046   */\n      sstore\n        /* \"#utility.yul\":6859:7052   */\n      pop\n        /* \"#utility.yul\":6783:7052   */\n      pop\n      pop\n      pop\n      jump\t// out\n        /* \"#utility.yul\":7058:7131   */\n    tag_66:\n        /* \"#utility.yul\":7103:7106   */\n      0x00\n        /* \"#utility.yul\":7124:7125   */\n      0x00\n        /* \"#utility.yul\":7117:7125   */\n      swap1\n      pop\n        /* \"#utility.yul\":7058:7131   */\n      swap1\n      jump\t// out\n        /* \"#utility.yul\":7137:7326   */\n    tag_67:\n        /* \"#utility.yul\":7214:7246   */\n      tag_155\n      tag_66\n      jump\t// in\n    tag_155:\n        /* \"#utility.yul\":7255:7320   */\n      tag_156\n        /* \"#utility.yul\":7313:7319   */\n      dup2\n        /* \"#utility.yul\":7305:7311   */\n      dup5\n        /* \"#utility.yul\":7299:7303   */\n      dup5\n        /* \"#utility.yul\":7255:7320   */\n      tag_65\n      jump\t// in\n    tag_156:\n        /* \"#utility.yul\":7190:7326   */\n      pop\n        /* \"#utility.yul\":7137:7326   */\n      pop\n      pop\n      jump\t// out\n        /* \"#utility.yul\":7332:7546   */\n    tag_68:\n        /* \"#utility.yul\":7417:7418   */\n      0x00\n        /* \"#utility.yul\":7402:7540   */\n    tag_158:\n        /* \"#utility.yul\":7427:7436   */\n      dup3\n        /* \"#utility.yul\":7424:7425   */\n      dup2\n        /* \"#utility.yul\":7421:7437   */\n      lt\n        /* \"#utility.yul\":7402:7540   */\n      iszero\n      tag_160\n      jumpi\n        /* \"#utility.yul\":7479:7530   */\n      tag_161\n        /* \"#utility.yul\":7528:7529   */\n      0x00\n        /* \"#utility.yul\":7524:7525   */\n      dup3\n        /* \"#utility.yul\":7513:7522   */\n      dup5\n        /* \"#utility.yul\":7509:7526   */\n      add\n        /* \"#utility.yul\":7479:7530   */\n      tag_67\n      jump\t// in\n    tag_161:\n        /* \"#utility.yul\":7452:7453   */\n      0x01\n        /* \"#utility.yul\":7449:7450   */\n      dup2\n        /* \"#utility.yul\":7445:7454   */\n      add\n        /* \"#utility.yul\":7440:7454   */\n      swap1\n      pop\n        /* \"#utility.yul\":7402:7540   */\n      jump(tag_158)\n    tag_160:\n        /* \"#utility.yul\":7406:7420   */\n      pop\n        /* \"#utility.yul\":7332:7546   */\n      pop\n      pop\n      jump\t// out\n        /* \"#utility.yul\":7552:8298   */\n    tag_69:\n        /* \"#utility.yul\":7653:7655   */\n      0x1f\n        /* \"#utility.yul\":7648:7651   */\n      dup3\n        /* \"#utility.yul\":7645:7656   */\n      gt\n        /* \"#utility.yul\":7642:8291   */\n      iszero\n      tag_163\n      jumpi\n        /* \"#utility.yul\":7682:7692   */\n      dup3\n        /* \"#utility.yul\":7677:7680   */\n      dup3\n        /* \"#utility.yul\":7674:7693   */\n      gt\n        /* \"#utility.yul\":7671:8281   */\n      iszero\n      tag_164\n      jumpi\n        /* \"#utility.yul\":7728:7766   */\n      tag_165\n        /* \"#utility.yul\":7760:7765   */\n      dup2\n        /* \"#utility.yul\":7728:7766   */\n      tag_58\n      jump\t// in\n    tag_165:\n        /* \"#utility.yul\":7803:7825   */\n      tag_166\n        /* \"#utility.yul\":7821:7824   */\n      dup4\n        /* \"#utility.yul\":7803:7825   */\n      tag_59\n      jump\t// in\n    tag_166:\n        /* \"#utility.yul\":7862:7891   */\n      tag_167\n        /* \"#utility.yul\":7880:7890   */\n      dup6\n        /* \"#utility.yul\":7862:7891   */\n      tag_59\n      jump\t// in\n    tag_167:\n        /* \"#utility.yul\":8052:8054   */\n      0x20\n        /* \"#utility.yul\":8040:8050   */\n      dup7\n        /* \"#utility.yul\":8037:8055   */\n      lt\n        /* \"#utility.yul\":8034:8113   */\n      iszero\n      tag_168\n      jumpi\n        /* \"#utility.yul\":8094:8095   */\n      0x00\n        /* \"#utility.yul\":8078:8095   */\n      swap1\n      pop\n        /* \"#utility.yul\":8034:8113   */\n    tag_168:\n        /* \"#utility.yul\":8163:8175   */\n      dup1\n        /* \"#utility.yul\":8153:8161   */\n      dup4\n        /* \"#utility.yul\":8149:8176   */\n      add\n        /* \"#utility.yul\":8193:8267   */\n      tag_169\n        /* \"#utility.yul\":8253:8265   */\n      dup3\n        /* \"#utility.yul\":8239:8251   */\n      dup5\n        /* \"#utility.yul\":8235:8266   */\n      sub\n        /* \"#utility.yul\":8222:8233   */\n      dup3\n        /* \"#utility.yul\":8193:8267   */\n      tag_68\n      jump\t// in\n    tag_169:\n        /* \"#utility.yul\":7694:8281   */\n      pop\n      pop\n      pop\n      pop\n        /* \"#utility.yul\":7671:8281   */\n    tag_164:\n        /* \"#utility.yul\":7642:8291   */\n    tag_163:\n        /* \"#utility.yul\":7552:8298   */\n      pop\n      pop\n      pop\n      jump\t// out\n        /* \"#utility.yul\":8304:8421   */\n    tag_70:\n        /* \"#utility.yul\":8358:8366   */\n      0x00\n        /* \"#utility.yul\":8408:8413   */\n      dup3\n        /* \"#utility.yul\":8402:8406   */\n      dup3\n        /* \"#utility.yul\":8398:8414   */\n      shr\n        /* \"#utility.yul\":8377:8414   */\n      swap1\n      pop\n        /* \"#utility.yul\":8304:8421   */\n      swap3\n      swap2\n      pop\n      pop\n      jump\t// out\n        /* \"#utility.yul\":8427:8596   */\n    tag_71:\n        /* \"#utility.yul\":8471:8477   */\n      0x00\n        /* \"#utility.yul\":8504:8555   */\n      tag_172\n        /* \"#utility.yul\":8552:8553   */\n      0x00\n        /* \"#utility.yul\":8548:8554   */\n      not\n        /* \"#utility.yul\":8540:8545   */\n      dup5\n        /* \"#utility.yul\":8537:8538   */\n      0x08\n        /* \"#utility.yul\":8533:8546   */\n      mul\n        /* \"#utility.yul\":8504:8555   */\n      tag_70\n      jump\t// in\n    tag_172:\n        /* \"#utility.yul\":8500:8556   */\n      not\n        /* \"#utility.yul\":8585:8589   */\n      dup1\n        /* \"#utility.yul\":8579:8583   */\n      dup4\n        /* \"#utility.yul\":8575:8590   */\n      and\n        /* \"#utility.yul\":8565:8590   */\n      swap2\n      pop\n        /* \"#utility.yul\":8478:8596   */\n      pop\n        /* \"#utility.yul\":8427:8596   */\n      swap3\n      swap2\n      pop\n      pop\n      jump\t// out\n        /* \"#utility.yul\":8601:8896   */\n    tag_72:\n        /* \"#utility.yul\":8677:8681   */\n      0x00\n        /* \"#utility.yul\":8823:8852   */\n      tag_174\n        /* \"#utility.yul\":8848:8851   */\n      dup4\n        /* \"#utility.yul\":8842:8846   */\n      dup4\n        /* \"#utility.yul\":8823:8852   */\n      tag_71\n      jump\t// in\n    tag_174:\n        /* \"#utility.yul\":8815:8852   */\n      swap2\n      pop\n        /* \"#utility.yul\":8885:8888   */\n      dup3\n        /* \"#utility.yul\":8882:8883   */\n      0x02\n        /* \"#utility.yul\":8878:8889   */\n      mul\n        /* \"#utility.yul\":8872:8876   */\n      dup3\n        /* \"#utility.yul\":8869:8890   */\n      or\n        /* \"#utility.yul\":8861:8890   */\n      swap1\n      pop\n        /* \"#utility.yul\":8601:8896   */\n      swap3\n      swap2\n      pop\n      pop\n      jump\t// out\n        /* \"#utility.yul\":8901:10296   */\n    tag_32:\n        /* \"#utility.yul\":9018:9055   */\n      tag_176\n        /* \"#utility.yul\":9051:9054   */\n      dup3\n        /* \"#utility.yul\":9018:9055   */\n      tag_35\n      jump\t// in\n    tag_176:\n        /* \"#utility.yul\":9120:9138   */\n      0xffffffffffffffff\n        /* \"#utility.yul\":9112:9118   */\n      dup2\n        /* \"#utility.yul\":9109:9139   */\n      gt\n        /* \"#utility.yul\":9106:9162   */\n      iszero\n      tag_177\n      jumpi\n        /* \"#utility.yul\":9142:9160   */\n      tag_178\n      tag_45\n      jump\t// in\n    tag_178:\n        /* \"#utility.yul\":9106:9162   */\n    tag_177:\n        /* \"#utility.yul\":9186:9224   */\n      tag_179\n        /* \"#utility.yul\":9218:9222   */\n      dup3\n        /* \"#utility.yul\":9212:9223   */\n      sload\n        /* \"#utility.yul\":9186:9224   */\n      tag_24\n      jump\t// in\n    tag_179:\n        /* \"#utility.yul\":9271:9338   */\n      tag_180\n        /* \"#utility.yul\":9331:9337   */\n      dup3\n        /* \"#utility.yul\":9323:9329   */\n      dup3\n        /* \"#utility.yul\":9317:9321   */\n      dup6\n        /* \"#utility.yul\":9271:9338   */\n      tag_69\n      jump\t// in\n    tag_180:\n        /* \"#utility.yul\":9365:9366   */\n      0x00\n        /* \"#utility.yul\":9389:9393   */\n      0x20\n        /* \"#utility.yul\":9376:9393   */\n      swap1\n      pop\n        /* \"#utility.yul\":9421:9423   */\n      0x1f\n        /* \"#utility.yul\":9413:9419   */\n      dup4\n        /* \"#utility.yul\":9410:9424   */\n      gt\n        /* \"#utility.yul\":9438:9439   */\n      0x01\n        /* \"#utility.yul\":9433:10051   */\n      dup2\n      eq\n      tag_182\n      jumpi\n        /* \"#utility.yul\":10095:10096   */\n      0x00\n        /* \"#utility.yul\":10112:10118   */\n      dup5\n        /* \"#utility.yul\":10109:10186   */\n      iszero\n      tag_183\n      jumpi\n        /* \"#utility.yul\":10161:10170   */\n      dup3\n        /* \"#utility.yul\":10156:10159   */\n      dup8\n        /* \"#utility.yul\":10152:10171   */\n      add\n        /* \"#utility.yul\":10146:10172   */\n      mload\n        /* \"#utility.yul\":10137:10172   */\n      swap1\n      pop\n        /* \"#utility.yul\":10109:10186   */\n    tag_183:\n        /* \"#utility.yul\":10212:10279   */\n      tag_184\n        /* \"#utility.yul\":10272:10278   */\n      dup6\n        /* \"#utility.yul\":10265:10270   */\n      dup3\n        /* \"#utility.yul\":10212:10279   */\n      tag_72\n      jump\t// in\n    tag_184:\n        /* \"#utility.yul\":10206:10210   */\n      dup7\n        /* \"#utility.yul\":10199:10280   */\n      sstore\n        /* \"#utility.yul\":10068:10290   */\n      pop\n        /* \"#utility.yul\":9403:10290   */\n      jump(tag_181)\n        /* \"#utility.yul\":9433:10051   */\n    tag_182:\n        /* \"#utility.yul\":9485:9489   */\n      0x1f\n        /* \"#utility.yul\":9481:9490   */\n      not\n        /* \"#utility.yul\":9473:9479   */\n      dup5\n        /* \"#utility.yul\":9469:9491   */\n      and\n        /* \"#utility.yul\":9519:9556   */\n      tag_185\n        /* \"#utility.yul\":9551:9555   */\n      dup7\n        /* \"#utility.yul\":9519:9556   */\n      tag_58\n      jump\t// in\n    tag_185:\n        /* \"#utility.yul\":9578:9579   */\n      0x00\n        /* \"#utility.yul\":9592:9800   */\n    tag_186:\n        /* \"#utility.yul\":9606:9613   */\n      dup3\n        /* \"#utility.yul\":9603:9604   */\n      dup2\n        /* \"#utility.yul\":9600:9614   */\n      lt\n        /* \"#utility.yul\":9592:9800   */\n      iszero\n      tag_188\n      jumpi\n        /* \"#utility.yul\":9685:9694   */\n      dup5\n        /* \"#utility.yul\":9680:9683   */\n      dup10\n        /* \"#utility.yul\":9676:9695   */\n      add\n        /* \"#utility.yul\":9670:9696   */\n      mload\n        /* \"#utility.yul\":9662:9668   */\n      dup3\n        /* \"#utility.yul\":9655:9697   */\n      sstore\n        /* \"#utility.yul\":9736:9737   */\n      0x01\n        /* \"#utility.yul\":9728:9734   */\n      dup3\n        /* \"#utility.yul\":9724:9738   */\n      add\n        /* \"#utility.yul\":9714:9738   */\n      swap2\n      pop\n        /* \"#utility.yul\":9783:9785   */\n      0x20\n        /* \"#utility.yul\":9772:9781   */\n      dup6\n        /* \"#utility.yul\":9768:9786   */\n      add\n        /* \"#utility.yul\":9755:9786   */\n      swap5\n      pop\n        /* \"#utility.yul\":9629:9633   */\n      0x20\n        /* \"#utility.yul\":9626:9627   */\n      dup2\n        /* \"#utility.yul\":9622:9634   */\n      add\n        /* \"#utility.yul\":9617:9634   */\n      swap1\n      pop\n        /* \"#utility.yul\":9592:9800   */\n      jump(tag_186)\n    tag_188:\n        /* \"#utility.yul\":9828:9834   */\n      dup7\n        /* \"#utility.yul\":9819:9826   */\n      dup4\n        /* \"#utility.yul\":9816:9835   */\n      lt\n        /* \"#utility.yul\":9813:9992   */\n      iszero\n      tag_189\n      jumpi\n        /* \"#utility.yul\":9886:9895   */\n      dup5\n        /* \"#utility.yul\":9881:9884   */\n      dup10\n        /* \"#utility.yul\":9877:9896   */\n      add\n        /* \"#utility.yul\":9871:9897   */\n      mload\n        /* \"#utility.yul\":9929:9977   */\n      tag_190\n        /* \"#utility.yul\":9971:9975   */\n      0x1f\n        /* \"#utility.yul\":9963:9969   */\n      dup10\n        /* \"#utility.yul\":9959:9976   */\n      and\n        /* \"#utility.yul\":9948:9957   */\n      dup3\n        /* \"#utility.yul\":9929:9977   */\n      tag_71\n      jump\t// in\n    tag_190:\n        /* \"#utility.yul\":9921:9927   */\n      dup4\n        /* \"#utility.yul\":9914:9978   */\n      sstore\n        /* \"#utility.yul\":9836:9992   */\n      pop\n        /* \"#utility.yul\":9813:9992   */\n    tag_189:\n        /* \"#utility.yul\":10038:10039   */\n      0x01\n        /* \"#utility.yul\":10034:10035   */\n      0x02\n        /* \"#utility.yul\":10026:10032   */\n      dup9\n        /* \"#utility.yul\":10022:10036   */\n      mul\n        /* \"#utility.yul\":10018:10040   */\n      add\n        /* \"#utility.yul\":10012:10016   */\n      dup9\n        /* \"#utility.yul\":10005:10041   */\n      sstore\n        /* \"#utility.yul\":9440:10051   */\n      pop\n      pop\n      pop\n        /* \"#utility.yul\":9403:10290   */\n    tag_181:\n      pop\n        /* \"#utility.yul\":8993:10296   */\n      pop\n      pop\n      pop\n        /* \"#utility.yul\":8901:10296   */\n      pop\n      pop\n      jump\t// out\n        /* \"#utility.yul\":10302:10482   */\n    tag_73:\n        /* \"#utility.yul\":10350:10427   */\n      0x4e487b7100000000000000000000000000000000000000000000000000000000\n        /* \"#utility.yul\":10347:10348   */\n      0x00\n        /* \"#utility.yul\":10340:10428   */\n      mstore\n        /* \"#utility.yul\":10447:10451   */\n      0x11\n        /* \"#utility.yul\":10444:10445   */\n      0x04\n        /* \"#utility.yul\":10437:10452   */\n      mstore\n        /* \"#utility.yul\":10471:10475   */\n      0x24\n        /* \"#utility.yul\":10468:10469   */\n      0x00\n        /* \"#utility.yul\":10461:10476   */\n      revert\n        /* \"#utility.yul\":10488:10721   */\n    tag_34:\n        /* \"#utility.yul\":10527:10530   */\n      0x00\n        /* \"#utility.yul\":10550:10574   */\n      tag_193\n        /* \"#utility.yul\":10568:10573   */\n      dup3\n        /* \"#utility.yul\":10550:10574   */\n      tag_55\n      jump\t// in\n    tag_193:\n        /* \"#utility.yul\":10541:10574   */\n      swap2\n      pop\n        /* \"#utility.yul\":10596:10662   */\n      0xffffffffffffffffffffffffffffffffffffffffffffffffffffffffffffffff\n        /* \"#utility.yul\":10589:10594   */\n      dup3\n        /* \"#utility.yul\":10586:10663   */\n      sub\n        /* \"#utility.yul\":10583:10686   */\n      tag_194\n      jumpi\n        /* \"#utility.yul\":10666:10684   */\n      tag_195\n      tag_73\n      jump\t// in\n    tag_195:\n        /* \"#utility.yul\":10583:10686   */\n    tag_194:\n        /* \"#utility.yul\":10713:10714   */\n      0x01\n        /* \"#utility.yul\":10706:10711   */\n      dup3\n        /* \"#utility.yul\":10702:10715   */\n      add\n        /* \"#utility.yul\":10695:10715   */\n      swap1\n      pop\n        /* \"#utility.yul\":10488:10721   */\n      swap2\n      swap1\n      pop\n      jump\t// out\n\n    auxdata: 0xa264697066735822122093cf3cb35aff7b313c91280f03578707b4094678216836fdcca83a5a5222b6b864736f6c63430008220033\n}\n",
				"bytecode": {
					"linkReferences": {},
					"object": "6080604052348015600e575f5ffd5b503360015f6101000a81548173ffffffffffffffffffffffffffffffffffffffff021916908373ffffffffffffffffffffffffffffffffffffffff16021790555061081c8061005c5f395ff3fe608060405234801561000f575f5ffd5b506004361061004a575f3560e01c806367e8805f1461004e5780636a3944341461006c5780638da5cb5b14610088578063aaf4389a146100a6575b5f5ffd5b6100566100c4565b6040516100639190610268565b60405180910390f35b610086600480360381019061008191906103c5565b610150565b005b6100906101ce565b60405161009d919061044b565b60405180910390f35b6100ae6101f3565b6040516100bb919061047c565b60405180910390f35b600280546100d1906104c2565b80601f01602080910402602001604051908101604052809291908181526020018280546100fd906104c2565b80156101485780601f1061011f57610100808354040283529160200191610148565b820191905f5260205f20905b81548152906001019060200180831161012b57829003601f168201915b505050505081565b60015f9054906101000a900473ffffffffffffffffffffffffffffffffffffffff1673ffffffffffffffffffffffffffffffffffffffff163373ffffffffffffffffffffffffffffffffffffffff16036101cb5780600290816101b391906106a3565b505f5f8154809291906101c59061079f565b91905055505b50565b60015f9054906101000a900473ffffffffffffffffffffffffffffffffffffffff1681565b5f5481565b5f81519050919050565b5f82825260208201905092915050565b8281835e5f83830152505050565b5f601f19601f8301169050919050565b5f61023a826101f8565b6102448185610202565b9350610254818560208601610212565b61025d81610220565b840191505092915050565b5f6020820190508181035f8301526102808184610230565b905092915050565b5f604051905090565b5f5ffd5b5f5ffd5b5f5ffd5b5f5ffd5b7f4e487b71000000000000000000000000000000000000000000000000000000005f52604160045260245ffd5b6102d782610220565b810181811067ffffffffffffffff821117156102f6576102f56102a1565b5b80604052505050565b5f610308610288565b905061031482826102ce565b919050565b5f67ffffffffffffffff821115610333576103326102a1565b5b61033c82610220565b9050602081019050919050565b828183375f83830152505050565b5f61036961036484610319565b6102ff565b9050828152602081018484840111156103855761038461029d565b5b610390848285610349565b509392505050565b5f82601f8301126103ac576103ab610299565b5b81356103bc848260208601610357565b91505092915050565b5f602082840312156103da576103d9610291565b5b5f82013567ffffffffffffffff8111156103f7576103f6610295565b5b61040384828501610398565b91505092915050565b5f73ffffffffffffffffffffffffffffffffffffffff82169050919050565b5f6104358261040c565b9050919050565b6104458161042b565b82525050565b5f60208201905061045e5f83018461043c565b92915050565b5f819050919050565b61047681610464565b82525050565b5f60208201905061048f5f83018461046d565b92915050565b7f4e487b71000000000000000000000000000000000000000000000000000000005f52602260045260245ffd5b5f60028204905060018216806104d957607f821691505b6020821081036104ec576104eb610495565b5b50919050565b5f819050815f5260205f209050919050565b5f6020601f8301049050919050565b5f82821b905092915050565b5f6008830261054e7fffffffffffffffffffffffffffffffffffffffffffffffffffffffffffffffff82610513565b6105588683610513565b95508019841693508086168417925050509392505050565b5f819050919050565b5f61059361058e61058984610464565b610570565b610464565b9050919050565b5f819050919050565b6105ac83610579565b6105c06105b88261059a565b84845461051f565b825550505050565b5f5f905090565b6105d76105c8565b6105e28184846105a3565b505050565b5f5b82811015610608576105fd5f8284016105cf565b6001810190506105e9565b505050565b601f82111561065b578282111561065a57610627816104f2565b61063083610504565b61063985610504565b6020861015610646575f90505b808301610655828403826105e7565b505050505b5b505050565b5f82821c905092915050565b5f61067b5f1984600802610660565b1980831691505092915050565b5f610693838361066c565b9150826002028217905092915050565b6106ac826101f8565b67ffffffffffffffff8111156106c5576106c46102a1565b5b6106cf82546104c2565b6106da82828561060d565b5f60209050601f83116001811461070b575f84156106f9578287015190505b6107038582610688565b86555061076a565b601f198416610719866104f2565b5f5b828110156107405784890151825560018201915060208501945060208101905061071b565b8683101561075d5784890151610759601f89168261066c565b8355505b6001600288020188555050505b505050505050565b7f4e487b71000000000000000000000000000000000000000000000000000000005f52601160045260245ffd5b5f6107a982610464565b91507fffffffffffffffffffffffffffffffffffffffffffffffffffffffffffffffff82036107db576107da610772565b5b60018201905091905056fea264697066735822122093cf3cb35aff7b313c91280f03578707b4094678216836fdcca83a5a5222b6b864736f6c63430008220033",
					"opcodes": "PUSH1 0x80 PUSH1 0x40 MSTORE CALLVALUE DUP1 ISZERO PUSH1 0xE JUMPI PUSH0 PUSH0 REVERT JUMPDEST POP CALLER PUSH1 0x1 PUSH0 PUSH2 0x100 EXP DUP2 SLOAD DUP2 PUSH20 0xFFFFFFFFFFFFFFFFFFFFFFFFFFFFFFFFFFFFFFFF MUL NOT AND SWAP1 DUP4 PUSH20 0xFFFFFFFFFFFFFFFFFFFFFFFFFFFFFFFFFFFFFFFF AND MUL OR SWAP1 SSTORE POP PUSH2 0x81C DUP1 PUSH2 0x5C PUSH0 CODECOPY PUSH0 RETURN INVALID PUSH1 0x80 PUSH1 0x40 MSTORE CALLVALUE DUP1 ISZERO PUSH2 0xF JUMPI PUSH0 PUSH0 REVERT JUMPDEST POP PUSH1 0x4 CALLDATASIZE LT PUSH2 0x4A JUMPI PUSH0 CALLDATALOAD PUSH1 0xE0 SHR DUP1 PUSH4 0x67E8805F EQ PUSH2 0x4E JUMPI DUP1 PUSH4 0x6A394434 EQ PUSH2 0x6C JUMPI DUP1 PUSH4 0x8DA5CB5B EQ PUSH2 0x88 JUMPI DUP1 PUSH4 0xAAF4389A EQ PUSH2 0xA6 JUMPI JUMPDEST PUSH0 PUSH0 REVERT JUMPDEST PUSH2 0x56 PUSH2 0xC4 JUMP JUMPDEST PUSH1 0x40 MLOAD PUSH2 0x63 SWAP2 SWAP1 PUSH2 0x268 JUMP JUMPDEST PUSH1 0x40 MLOAD DUP1 SWAP2 SUB SWAP1 RETURN JUMPDEST PUSH2 0x86 PUSH1 0x4 DUP1 CALLDATASIZE SUB DUP2 ADD SWAP1 PUSH2 0x81 SWAP2 SWAP1 PUSH2 0x3C5 JUMP JUMPDEST PUSH2 0x150 JUMP JUMPDEST STOP JUMPDEST PUSH2 0x90 PUSH2 0x1CE JUMP JUMPDEST PUSH1 0x40 MLOAD PUSH2 0x9D SWAP2 SWAP1 PUSH2 0x44B JUMP JUMPDEST PUSH1 0x40 MLOAD DUP1 SWAP2 SUB SWAP1 RETURN JUMPDEST PUSH2 0xAE PUSH2 0x1F3 JUMP JUMPDEST PUSH1 0x40 MLOAD PUSH2 0xBB SWAP2 SWAP1 PUSH2 0x47C JUMP JUMPDEST PUSH1 0x40 MLOAD DUP1 SWAP2 SUB SWAP1 RETURN JUMPDEST PUSH1 0x2 DUP1 SLOAD PUSH2 0xD1 SWAP1 PUSH2 0x4C2 JUMP JUMPDEST DUP1 PUSH1 0x1F ADD PUSH1 0x20 DUP1 SWAP2 DIV MUL PUSH1 0x20 ADD PUSH1 0x40 MLOAD SWAP1 DUP2 ADD PUSH1 0x40 MSTORE DUP1 SWAP3 SWAP2 SWAP1 DUP2 DUP2 MSTORE PUSH1 0x20 ADD DUP3 DUP1 SLOAD PUSH2 0xFD SWAP1 PUSH2 0x4C2 JUMP JUMPDEST DUP1 ISZERO PUSH2 0x148 JUMPI DUP1 PUSH1 0x1F LT PUSH2 0x11F JUMPI PUSH2 0x100 DUP1 DUP4 SLOAD DIV MUL DUP4 MSTORE SWAP2 PUSH1 0x20 ADD SWAP2 PUSH2 0x148 JUMP JUMPDEST DUP3 ADD SWAP2 SWAP1 PUSH0 MSTORE PUSH1 0x20 PUSH0 KECCAK256 SWAP1 JUMPDEST DUP2 SLOAD DUP2 MSTORE SWAP1 PUSH1 0x1 ADD SWAP1 PUSH1 0x20 ADD DUP1 DUP4 GT PUSH2 0x12B JUMPI DUP3 SWAP1 SUB PUSH1 0x1F AND DUP3 ADD SWAP2 JUMPDEST POP POP POP POP POP DUP2 JUMP JUMPDEST PUSH1 0x1 PUSH0 SWAP1 SLOAD SWAP1 PUSH2 0x100 EXP SWAP1 DIV PUSH20 0xFFFFFFFFFFFFFFFFFFFFFFFFFFFFFFFFFFFFFFFF AND PUSH20 0xFFFFFFFFFFFFFFFFFFFFFFFFFFFFFFFFFFFFFFFF AND CALLER PUSH20 0xFFFFFFFFFFFFFFFFFFFFFFFFFFFFFFFFFFFFFFFF AND SUB PUSH2 0x1CB JUMPI DUP1 PUSH1 0x2 SWAP1 DUP2 PUSH2 0x1B3 SWAP2 SWAP1 PUSH2 0x6A3 JUMP JUMPDEST POP PUSH0 PUSH0 DUP2 SLOAD DUP1 SWAP3 SWAP2 SWAP1 PUSH2 0x1C5 SWAP1 PUSH2 0x79F JUMP JUMPDEST SWAP2 SWAP1 POP SSTORE POP JUMPDEST POP JUMP JUMPDEST PUSH1 0x1 PUSH0 SWAP1 SLOAD SWAP1 PUSH2 0x100 EXP SWAP1 DIV PUSH20 0xFFFFFFFFFFFFFFFFFFFFFFFFFFFFFFFFFFFFFFFF AND DUP2 JUMP JUMPDEST PUSH0 SLOAD DUP2 JUMP JUMPDEST PUSH0 DUP2 MLOAD SWAP1 POP SWAP2 SWAP1 POP JUMP JUMPDEST PUSH0 DUP3 DUP3 MSTORE PUSH1 0x20 DUP3 ADD SWAP1 POP SWAP3 SWAP2 POP POP JUMP JUMPDEST DUP3 DUP2 DUP4 MCOPY PUSH0 DUP4 DUP4 ADD MSTORE POP POP POP JUMP JUMPDEST PUSH0 PUSH1 0x1F NOT PUSH1 0x1F DUP4 ADD AND SWAP1 POP SWAP2 SWAP1 POP JUMP JUMPDEST PUSH0 PUSH2 0x23A DUP3 PUSH2 0x1F8 JUMP JUMPDEST PUSH2 0x244 DUP2 DUP6 PUSH2 0x202 JUMP JUMPDEST SWAP4 POP PUSH2 0x254 DUP2 DUP6 PUSH1 0x20 DUP7 ADD PUSH2 0x212 JUMP JUMPDEST PUSH2 0x25D DUP2 PUSH2 0x220 JUMP JUMPDEST DUP5 ADD SWAP2 POP POP SWAP3 SWAP2 POP POP JUMP JUMPDEST PUSH0 PUSH1 0x20 DUP3 ADD SWAP1 POP DUP2 DUP2 SUB PUSH0 DUP4 ADD MSTORE PUSH2 0x280 DUP2 DUP5 PUSH2 0x230 JUMP JUMPDEST SWAP1 POP SWAP3 SWAP2 POP POP JUMP JUMPDEST PUSH0 PUSH1 0x40 MLOAD SWAP1 POP SWAP1 JUMP JUMPDEST PUSH0 PUSH0 REVERT JUMPDEST PUSH0 PUSH0 REVERT JUMPDEST PUSH0 PUSH0 REVERT JUMPDEST PUSH0 PUSH0 REVERT JUMPDEST PUSH32 0x4E487B7100000000000000000000000000000000000000000000000000000000 PUSH0 MSTORE PUSH1 0x41 PUSH1 0x4 MSTORE PUSH1 0x24 PUSH0 REVERT JUMPDEST PUSH2 0x2D7 DUP3 PUSH2 0x220 JUMP JUMPDEST DUP2 ADD DUP2 DUP2 LT PUSH8 0xFFFFFFFFFFFFFFFF DUP3 GT OR ISZERO PUSH2 0x2F6 JUMPI PUSH2 0x2F5 PUSH2 0x2A1 JUMP JUMPDEST JUMPDEST DUP1 PUSH1 0x40 MSTORE POP POP POP JUMP JUMPDEST PUSH0 PUSH2 0x308 PUSH2 0x288 JUMP JUMPDEST SWAP1 POP PUSH2 0x314 DUP3 DUP3 PUSH2 0x2CE JUMP JUMPDEST SWAP2 SWAP1 POP JUMP JUMPDEST PUSH0 PUSH8 0xFFFFFFFFFFFFFFFF DUP3 GT ISZERO PUSH2 0x333 JUMPI PUSH2 0x332 PUSH2 0x2A1 JUMP JUMPDEST JUMPDEST PUSH2 0x33C DUP3 PUSH2 0x220 JUMP JUMPDEST SWAP1 POP PUSH1 0x20 DUP2 ADD SWAP1 POP SWAP2 SWAP1 POP JUMP JUMPDEST DUP3 DUP2 DUP4 CALLDATACOPY PUSH0 DUP4 DUP4 ADD MSTORE POP POP POP JUMP JUMPDEST PUSH0 PUSH2 0x369 PUSH2 0x364 DUP5 PUSH2 0x319 JUMP JUMPDEST PUSH2 0x2FF JUMP JUMPDEST SWAP1 POP DUP3 DUP2 MSTORE PUSH1 0x20 DUP2 ADD DUP5 DUP5 DUP5 ADD GT ISZERO PUSH2 0x385 JUMPI PUSH2 0x384 PUSH2 0x29D JUMP JUMPDEST JUMPDEST PUSH2 0x390 DUP5 DUP3 DUP6 PUSH2 0x349 JUMP JUMPDEST POP SWAP4 SWAP3 POP POP POP JUMP JUMPDEST PUSH0 DUP3 PUSH1 0x1F DUP4 ADD SLT PUSH2 0x3AC JUMPI PUSH2 0x3AB PUSH2 0x299 JUMP JUMPDEST JUMPDEST DUP2 CALLDATALOAD PUSH2 0x3BC DUP5 DUP3 PUSH1 0x20 DUP7 ADD PUSH2 0x357 JUMP JUMPDEST SWAP2 POP POP SWAP3 SWAP2 POP POP JUMP JUMPDEST PUSH0 PUSH1 0x20 DUP3 DUP5 SUB SLT ISZERO PUSH2 0x3DA JUMPI PUSH2 0x3D9 PUSH2 0x291 JUMP JUMPDEST JUMPDEST PUSH0 DUP3 ADD CALLDATALOAD PUSH8 0xFFFFFFFFFFFFFFFF DUP2 GT ISZERO PUSH2 0x3F7 JUMPI PUSH2 0x3F6 PUSH2 0x295 JUMP JUMPDEST JUMPDEST PUSH2 0x403 DUP5 DUP3 DUP6 ADD PUSH2 0x398 JUMP JUMPDEST SWAP2 POP POP SWAP3 SWAP2 POP POP JUMP JUMPDEST PUSH0 PUSH20 0xFFFFFFFFFFFFFFFFFFFFFFFFFFFFFFFFFFFFFFFF DUP3 AND SWAP1 POP SWAP2 SWAP1 POP JUMP JUMPDEST PUSH0 PUSH2 0x435 DUP3 PUSH2 0x40C JUMP JUMPDEST SWAP1 POP SWAP2 SWAP1 POP JUMP JUMPDEST PUSH2 0x445 DUP2 PUSH2 0x42B JUMP JUMPDEST DUP3 MSTORE POP POP JUMP JUMPDEST PUSH0 PUSH1 0x20 DUP3 ADD SWAP1 POP PUSH2 0x45E PUSH0 DUP4 ADD DUP5 PUSH2 0x43C JUMP JUMPDEST SWAP3 SWAP2 POP POP JUMP JUMPDEST PUSH0 DUP2 SWAP1 POP SWAP2 SWAP1 POP JUMP JUMPDEST PUSH2 0x476 DUP2 PUSH2 0x464 JUMP JUMPDEST DUP3 MSTORE POP POP JUMP JUMPDEST PUSH0 PUSH1 0x20 DUP3 ADD SWAP1 POP PUSH2 0x48F PUSH0 DUP4 ADD DUP5 PUSH2 0x46D JUMP JUMPDEST SWAP3 SWAP2 POP POP JUMP JUMPDEST PUSH32 0x4E487B7100000000000000000000000000000000000000000000000000000000 PUSH0 MSTORE PUSH1 0x22 PUSH1 0x4 MSTORE PUSH1 0x24 PUSH0 REVERT JUMPDEST PUSH0 PUSH1 0x2 DUP3 DIV SWAP1 POP PUSH1 0x1 DUP3 AND DUP1 PUSH2 0x4D9 JUMPI PUSH1 0x7F DUP3 AND SWAP2 POP JUMPDEST PUSH1 0x20 DUP3 LT DUP2 SUB PUSH2 0x4EC JUMPI PUSH2 0x4EB PUSH2 0x495 JUMP JUMPDEST JUMPDEST POP SWAP2 SWAP1 POP JUMP JUMPDEST PUSH0 DUP2 SWAP1 POP DUP2 PUSH0 MSTORE PUSH1 0x20 PUSH0 KECCAK256 SWAP1 POP SWAP2 SWAP1 POP JUMP JUMPDEST PUSH0 PUSH1 0x20 PUSH1 0x1F DUP4 ADD DIV SWAP1 POP SWAP2 SWAP1 POP JUMP JUMPDEST PUSH0 DUP3 DUP3 SHL SWAP1 POP SWAP3 SWAP2 POP POP JUMP JUMPDEST PUSH0 PUSH1 0x8 DUP4 MUL PUSH2 0x54E PUSH32 0xFFFFFFFFFFFFFFFFFFFFFFFFFFFFFFFFFFFFFFFFFFFFFFFFFFFFFFFFFFFFFFFF DUP3 PUSH2 0x513 JUMP JUMPDEST PUSH2 0x558 DUP7 DUP4 PUSH2 0x513 JUMP JUMPDEST SWAP6 POP DUP1 NOT DUP5 AND SWAP4 POP DUP1 DUP7 AND DUP5 OR SWAP3 POP POP POP SWAP4 SWAP3 POP POP POP JUMP JUMPDEST PUSH0 DUP2 SWAP1 POP SWAP2 SWAP1 POP JUMP JUMPDEST PUSH0 PUSH2 0x593 PUSH2 0x58E PUSH2 0x589 DUP5 PUSH2 0x464 JUMP JUMPDEST PUSH2 0x570 JUMP JUMPDEST PUSH2 0x464 JUMP JUMPDEST SWAP1 POP SWAP2 SWAP1 POP JUMP JUMPDEST PUSH0 DUP2 SWAP1 POP SWAP2 SWAP1 POP JUMP JUMPDEST PUSH2 0x5AC DUP4 PUSH2 0x579 JUMP JUMPDEST PUSH2 0x5C0 PUSH2 0x5B8 DUP3 PUSH2 0x59A JUMP JUMPDEST DUP5 DUP5 SLOAD PUSH2 0x51F JUMP JUMPDEST DUP3 SSTORE POP POP POP POP JUMP JUMPDEST PUSH0 PUSH0 SWAP1 POP SWAP1 JUMP JUMPDEST PUSH2 0x5D7 PUSH2 0x5C8 JUMP JUMPDEST PUSH2 0x5E2 DUP2 DUP5 DUP5 PUSH2 0x5A3 JUMP JUMPDEST POP POP POP JUMP JUMPDEST PUSH0 JUMPDEST DUP3 DUP2 LT ISZERO PUSH2 0x608 JUMPI PUSH2 0x5FD PUSH0 DUP3 DUP5 ADD PUSH2 0x5CF JUMP JUMPDEST PUSH1 0x1 DUP2 ADD SWAP1 POP PUSH2 0x5E9 JUMP JUMPDEST POP POP POP JUMP JUMPDEST PUSH1 0x1F DUP3 GT ISZERO PUSH2 0x65B JUMPI DUP3 DUP3 GT ISZERO PUSH2 0x65A JUMPI PUSH2 0x627 DUP2 PUSH2 0x4F2 JUMP JUMPDEST PUSH2 0x630 DUP4 PUSH2 0x504 JUMP JUMPDEST PUSH2 0x639 DUP6 PUSH2 0x504 JUMP JUMPDEST PUSH1 0x20 DUP7 LT ISZERO PUSH2 0x646 JUMPI PUSH0 SWAP1 POP JUMPDEST DUP1 DUP4 ADD PUSH2 0x655 DUP3 DUP5 SUB DUP3 PUSH2 0x5E7 JUMP JUMPDEST POP POP POP POP JUMPDEST JUMPDEST POP POP POP JUMP JUMPDEST PUSH0 DUP3 DUP3 SHR SWAP1 POP SWAP3 SWAP2 POP POP JUMP JUMPDEST PUSH0 PUSH2 0x67B PUSH0 NOT DUP5 PUSH1 0x8 MUL PUSH2 0x660 JUMP JUMPDEST NOT DUP1 DUP4 AND SWAP2 POP POP SWAP3 SWAP2 POP POP JUMP JUMPDEST PUSH0 PUSH2 0x693 DUP4 DUP4 PUSH2 0x66C JUMP JUMPDEST SWAP2 POP DUP3 PUSH1 0x2 MUL DUP3 OR SWAP1 POP SWAP3 SWAP2 POP POP JUMP JUMPDEST PUSH2 0x6AC DUP3 PUSH2 0x1F8 JUMP JUMPDEST PUSH8 0xFFFFFFFFFFFFFFFF DUP2 GT ISZERO PUSH2 0x6C5 JUMPI PUSH2 0x6C4 PUSH2 0x2A1 JUMP JUMPDEST JUMPDEST PUSH2 0x6CF DUP3 SLOAD PUSH2 0x4C2 JUMP JUMPDEST PUSH2 0x6DA DUP3 DUP3 DUP6 PUSH2 0x60D JUMP JUMPDEST PUSH0 PUSH1 0x20 SWAP1 POP PUSH1 0x1F DUP4 GT PUSH1 0x1 DUP2 EQ PUSH2 0x70B JUMPI PUSH0 DUP5 ISZERO PUSH2 0x6F9 JUMPI DUP3 DUP8 ADD MLOAD SWAP1 POP JUMPDEST PUSH2 0x703 DUP6 DUP3 PUSH2 0x688 JUMP JUMPDEST DUP7 SSTORE POP PUSH2 0x76A JUMP JUMPDEST PUSH1 0x1F NOT DUP5 AND PUSH2 0x719 DUP7 PUSH2 0x4F2 JUMP JUMPDEST PUSH0 JUMPDEST DUP3 DUP2 LT ISZERO PUSH2 0x740 JUMPI DUP5 DUP10 ADD MLOAD DUP3 SSTORE PUSH1 0x1 DUP3 ADD SWAP2 POP PUSH1 0x20 DUP6 ADD SWAP5 POP PUSH1 0x20 DUP2 ADD SWAP1 POP PUSH2 0x71B JUMP JUMPDEST DUP7 DUP4 LT ISZERO PUSH2 0x75D JUMPI DUP5 DUP10 ADD MLOAD PUSH2 0x759 PUSH1 0x1F DUP10 AND DUP3 PUSH2 0x66C JUMP JUMPDEST DUP4 SSTORE POP JUMPDEST PUSH1 0x1 PUSH1 0x2 DUP9 MUL ADD DUP9 SSTORE POP POP POP JUMPDEST POP POP POP POP POP POP JUMP JUMPDEST PUSH32 0x4E487B7100000000000000000000000000000000000000000000000000000000 PUSH0 MSTORE PUSH1 0x11 PUSH1 0x4 MSTORE PUSH1 0x24 PUSH0 REVERT JUMPDEST PUSH0 PUSH2 0x7A9 DUP3 PUSH2 0x464 JUMP JUMPDEST SWAP2 POP PUSH32 0xFFFFFFFFFFFFFFFFFFFFFFFFFFFFFFFFFFFFFFFFFFFFFFFFFFFFFFFFFFFFFFFF DUP3 SUB PUSH2 0x7DB JUMPI PUSH2 0x7DA PUSH2 0x772 JUMP JUMPDEST JUMPDEST PUSH1 0x1 DUP3 ADD SWAP1 POP SWAP2 SWAP1 POP JUMP INVALID LOG2 PUSH5 0x6970667358 0x22 SLT KECCAK256 SWAP4 0xCF EXTCODECOPY 0xB3 GAS SELFDESTRUCT PUSH28 0x313C91280F03578707B4094678216836FDCCA83A5A5222B6B864736F PUSH13 0x63430008220033000000000000 "
				},
				"gasEstimates": {
					"creation": {
						"codeDepositCost": "415200",
						"executionCost": "24712",
						"totalCost": "439912"
					},
					"external": {
						"changeCounter()": "2468",
						"owner()": "2530",
						"theMessage()": "infinite",
						"updateTheMessage(string)": "infinite"
					}
				},
				"methodIdentifiers": {
					"changeCounter()": "aaf4389a",
					"owner()": "8da5cb5b",
					"theMessage()": "67e8805f",
					"updateTheMessage(string)": "6a394434"
				}
			},
			"storageLayout": {
				"storage": [
					{
						"astId": 3,
						"contract": "contracts/TheBlockchainMessenger.sol:TheBlockchainMessenger",
						"label": "changeCounter",
						"offset": 0,
						"slot": "0",
						"type": "t_uint256"
					},
					{
						"astId": 5,
						"contract": "contracts/TheBlockchainMessenger.sol:TheBlockchainMessenger",
						"label": "owner",
						"offset": 0,
						"slot": "1",
						"type": "t_address"
					},
					{
						"astId": 7,
						"contract": "contracts/TheBlockchainMessenger.sol:TheBlockchainMessenger",
						"label": "theMessage",
						"offset": 0,
						"slot": "2",
						"type": "t_string_storage"
					}
				],
				"types": {
					"t_address": {
						"encoding": "inplace",
						"label": "address",
						"numberOfBytes": "20"
					},
					"t_string_storage": {
						"encoding": "bytes",
						"label": "string",
						"numberOfBytes": "32"
					},
					"t_uint256": {
						"encoding": "inplace",
						"label": "uint256",
						"numberOfBytes": "32"
					}
				}
			},
			"userdoc": {
				"kind": "user",
				"methods": {},
				"version": 1
			}
		}
	}
}